{
  "transactions": [
    {
      "hash": "0x83a55e89eea90e07b55be7e0dc4fdd20f755a1960af2b7e2f3efd84c7aa7c913",
      "transactionType": "CALL",
      "contractName": null,
      "contractAddress": "0x94a9d9ac8a22534e3faca9f4e7f2e2cf85d5e4c8",
      "function": "approve(address,uint256)",
      "arguments": [
        "0x834f25Ef3D695C888d0792F17024fe7F2fE0c822",
        "101000000"
      ],
      "transaction": {
        "from": "0xc3235b99bdf0f12e793bca9b83a8bad88e06c8b3",
        "to": "0x94a9d9ac8a22534e3faca9f4e7f2e2cf85d5e4c8",
        "gas": "0x10816",
        "value": "0x0",
        "input": "0x095ea7b3000000000000000000000000834f25ef3d695c888d0792f17024fe7f2fe0c8220000000000000000000000000000000000000000000000000000000006052340",
        "nonce": "0x0",
        "chainId": "0xaa36a7"
      },
      "additionalContracts": [],
      "isFixedGasLimit": false
    },
    {
      "hash": "0x09d85b5f1fa7c91339554f2a84962acfbfe2f6cea318dc51184e3885ad16cc70",
      "transactionType": "CALL",
      "contractName": null,
      "contractAddress": "0x834f25ef3d695c888d0792f17024fe7f2fe0c822",
      "function": "createDeal(address,address,address,uint256)",
      "arguments": [
        "0xc3235B99Bdf0F12e793BcA9B83A8BAD88E06C8B3",
        "0x1d011983F10E491662dd1eA8Af0D6d6213B76A85",
        "0x94a9D9AC8a22534E3FaCa9F4e7F2E2cf85d5E4C8",
        "100000000"
      ],
      "transaction": {
        "from": "0xc3235b99bdf0f12e793bca9b83a8bad88e06c8b3",
        "to": "0x834f25ef3d695c888d0792f17024fe7f2fe0c822",
        "gas": "0x47a06",
        "value": "0x0",
        "input": "0xcefa1cb2000000000000000000000000c3235b99bdf0f12e793bca9b83a8bad88e06c8b30000000000000000000000001d011983f10e491662dd1ea8af0d6d6213b76a8500000000000000000000000094a9d9ac8a22534e3faca9f4e7f2e2cf85d5e4c80000000000000000000000000000000000000000000000000000000005f5e100",
        "nonce": "0x1",
        "chainId": "0xaa36a7"
      },
      "additionalContracts": [],
      "isFixedGasLimit": false
    }
  ],
  "receipts": [
    {
      "status": "0x1",
      "cumulativeGasUsed": "0xb903b9",
      "logs": [
        {
          "address": "0x94a9d9ac8a22534e3faca9f4e7f2e2cf85d5e4c8",
          "topics": [
            "0x8c5be1e5ebec7d5bd14f71427d1e84f3dd0314c0f7b2291e5b200ac8c7c3b925",
            "0x000000000000000000000000c3235b99bdf0f12e793bca9b83a8bad88e06c8b3",
            "0x000000000000000000000000834f25ef3d695c888d0792f17024fe7f2fe0c822"
          ],
          "data": "0x0000000000000000000000000000000000000000000000000000000006052340",
          "blockHash": "0x325fdd13357600d59743a3ecf6fc38a8f5a953194eace6a4ee810f50090ae1a4",
          "blockNumber": "0x8c66e4",
          "blockTimestamp": "0x68c69bec",
          "transactionHash": "0x83a55e89eea90e07b55be7e0dc4fdd20f755a1960af2b7e2f3efd84c7aa7c913",
          "transactionIndex": "0x55",
          "logIndex": "0x72",
          "removed": false
        }
      ],
      "logsBloom": "0x00000000000000000000000000000000000000000000000000000000000000000000000000000000000000000000000000000000000000000000000000200000010000000000000000004000000000000000000000000000004008000000000000000000000000000000000040000000000000000000000000000000000000000000000000200000000000000000000000000000000000000000000000000000020000000100000000004000000000000000000000000000000000000000000000000000000000000000000000000000000000000000000000000000002000000010000000000000000000000000000000000000000000000000000000000000",
      "type": "0x2",
      "transactionHash": "0x83a55e89eea90e07b55be7e0dc4fdd20f755a1960af2b7e2f3efd84c7aa7c913",
      "transactionIndex": "0x55",
      "blockHash": "0x325fdd13357600d59743a3ecf6fc38a8f5a953194eace6a4ee810f50090ae1a4",
      "blockNumber": "0x8c66e4",
      "gasUsed": "0xb493",
      "effectiveGasPrice": "0xf6f7d",
      "from": "0xc3235b99bdf0f12e793bca9b83a8bad88e06c8b3",
      "to": "0x94a9d9ac8a22534e3faca9f4e7f2e2cf85d5e4c8",
      "contractAddress": null
    },
    {
      "status": "0x1",
      "cumulativeGasUsed": "0xbc416d",
      "logs": [
        {
          "address": "0x94a9d9ac8a22534e3faca9f4e7f2e2cf85d5e4c8",
          "topics": [
            "0xddf252ad1be2c89b69c2b068fc378daa952ba7f163c4a11628f55a4df523b3ef",
            "0x000000000000000000000000c3235b99bdf0f12e793bca9b83a8bad88e06c8b3",
            "0x000000000000000000000000834f25ef3d695c888d0792f17024fe7f2fe0c822"
          ],
          "data": "0x0000000000000000000000000000000000000000000000000000000006052340",
          "blockHash": "0x325fdd13357600d59743a3ecf6fc38a8f5a953194eace6a4ee810f50090ae1a4",
          "blockNumber": "0x8c66e4",
          "blockTimestamp": "0x68c69bec",
          "transactionHash": "0x09d85b5f1fa7c91339554f2a84962acfbfe2f6cea318dc51184e3885ad16cc70",
          "transactionIndex": "0x56",
          "logIndex": "0x73",
          "removed": false
        },
        {
          "address": "0x94a9d9ac8a22534e3faca9f4e7f2e2cf85d5e4c8",
          "topics": [
            "0x8c5be1e5ebec7d5bd14f71427d1e84f3dd0314c0f7b2291e5b200ac8c7c3b925",
            "0x000000000000000000000000c3235b99bdf0f12e793bca9b83a8bad88e06c8b3",
            "0x000000000000000000000000834f25ef3d695c888d0792f17024fe7f2fe0c822"
          ],
          "data": "0x0000000000000000000000000000000000000000000000000000000000000000",
          "blockHash": "0x325fdd13357600d59743a3ecf6fc38a8f5a953194eace6a4ee810f50090ae1a4",
          "blockNumber": "0x8c66e4",
          "blockTimestamp": "0x68c69bec",
          "transactionHash": "0x09d85b5f1fa7c91339554f2a84962acfbfe2f6cea318dc51184e3885ad16cc70",
          "transactionIndex": "0x56",
          "logIndex": "0x74",
          "removed": false
        },
        {
          "address": "0x834f25ef3d695c888d0792f17024fe7f2fe0c822",
          "topics": [
            "0x593bb6cd0cb27b3d9f52e7d27f9e2ad7f331a1f99af6e6a465b06112bdde8493",
            "0x0000000000000000000000000000000000000000000000000000000000000001",
            "0x000000000000000000000000c3235b99bdf0f12e793bca9b83a8bad88e06c8b3",
            "0x0000000000000000000000001d011983f10e491662dd1ea8af0d6d6213b76a85"
          ],
          "data": "0x000000000000000000000000000000000000000000000000000000000605234000000000000000000000000094a9d9ac8a22534e3faca9f4e7f2e2cf85d5e4c8",
          "blockHash": "0x325fdd13357600d59743a3ecf6fc38a8f5a953194eace6a4ee810f50090ae1a4",
          "blockNumber": "0x8c66e4",
          "blockTimestamp": "0x68c69bec",
          "transactionHash": "0x09d85b5f1fa7c91339554f2a84962acfbfe2f6cea318dc51184e3885ad16cc70",
          "transactionIndex": "0x56",
          "logIndex": "0x75",
          "removed": false
        }
      ],
      "logsBloom": "0x00000000000000000000000000000000010000000000000000000000000000000000000000000000000000000000000000000000000000000000000000240000010000000000000000004008000000000000000100040000004008000800000000000000000000000000000040000000000000000000000000000010004000000000000000200020000000000000000000000000000000000000000000000000020000000100000000004000000000000000000000010000000000000000000000000002000000000010000000000000000000000000000000000000002040000010000000000000000000000000000000000000000000000000000010001000",
      "type": "0x2",
      "transactionHash": "0x09d85b5f1fa7c91339554f2a84962acfbfe2f6cea318dc51184e3885ad16cc70",
      "transactionIndex": "0x56",
      "blockHash": "0x325fdd13357600d59743a3ecf6fc38a8f5a953194eace6a4ee810f50090ae1a4",
      "blockNumber": "0x8c66e4",
      "gasUsed": "0x33db4",
      "effectiveGasPrice": "0xf6f7d",
      "from": "0xc3235b99bdf0f12e793bca9b83a8bad88e06c8b3",
      "to": "0x834f25ef3d695c888d0792f17024fe7f2fe0c822",
      "contractAddress": null
    }
  ],
  "libraries": [],
  "pending": [],
  "returns": {},
  "timestamp": 1757846509216,
  "chain": 11155111,
  "commit": "2af8bfe"
}