{
  "transactions": [
    {
      "hash": "0x99e9f444e1f7dbdd0af0ed14690c16e06a8d29ad72ca899221a950353a8b083d",
      "transactionType": "CREATE",
      "contractName": "FeeController",
      "contractAddress": "0x5e2cb57026c867726bdaa92c0c4866d599aab4f9",
      "function": null,
      "arguments": [
        "100",
        "500",
        "10000000000000000000"
      ],
      "transaction": {
        "from": "0xec2b1547294a4dd62c0ae651aeb01493f8e4cd74",
        "gas": "0xa0600",
        "value": "0x0",
        "input": "0x6080346100c757601f61075838819003918201601f19168301916001600160401b038311848410176100cb578084926060946040528339810103126100c757805190604060208201519101519033156100af575f8054336001600160a01b0319821681178355604051959290916001600160a01b0316907f8be0079c531659141344cd1fd0a4f28419497f9722a3daafe3b4186f6b6457e09080a360015560025560035561067890816100e08239f35b604051631e4fbdf760e01b81525f6004820152602490fd5b5f80fd5b634e487b7160e01b5f52604160045260245ffdfe60806040818152600480361015610014575f80fd5b5f92833560e01c90816306416ba81461054b5750806307ffbcff1461051d5780630e8d2b18146104f65780631568aef4146104d7578063558e44d3146104ba578063715018a6146104605780638da5cb5b146104385780639a14aaf6146103ff578063a1585a6a146103c4578063a6a8caea14610395578063af1ab9441461033b578063e09804dc14610318578063ee552100146101435763f2fde38b146100ba575f80fd5b3461013f57602036600319011261013f576100d3610567565b906100dc610581565b6001600160a01b0391821692831561012957505082546001600160a01b0319811683178455167f8be0079c531659141344cd1fd0a4f28419497f9722a3daafe3b4186f6b6457e08380a380f35b51631e4fbdf760e01b8152908101849052602490fd5b8280fd5b5091346103155760603660031901126103155761015e610567565b6001600160a01b039081168252602084815283832054845163313ce56760e01b8152919591939192604435911686858581845afa9485156102d15783956102db575b5060a08491875195868092633fabe5a360e21b82525afa9384156102d1578394610284575b5060035491670de0b6b3a764000091610203836101ea6101e48a610620565b876105ac565b04966101fd6101f88a610631565b610620565b906105ac565b916102126002546024356105ac565b915f1982019182116102715760ff8211610271575061024c6101f861271061024561025796956001610252961b906105ac565b0499610631565b886105ac565b6105ac565b04111590506102695750905b51908152f35b905090610263565b634e487b7160e01b875260119052602486fd5b90935060a0813d82116102c9575b8161029f60a093836105d3565b8101031261013f576102b081610609565b506102c16080888301519201610609565b50925f6101c5565b3d9150610292565b86513d85823e3d90fd5b9094508681813d831161030e575b6102f381836105d3565b8101031261013f575160ff8116810361013f579360a06101a0565b503d6102e9565b80fd5b5050346103375781600319360112610337576020906002549051908152f35b5080fd5b50903461013f578060031936011261013f57610355610567565b6001600160a01b0360243581811694929085900361039157610375610581565b168452602052822080546001600160a01b031916909117905580f35b8580fd5b50913461031557602036600319011261031557506127106103bc60209360015490356105ac565b049051908152f35b503461013f57602036600319011261013f578035916103e1610581565b61271083116103f257505060015580f35b51630ca054b760e41b8152fd5b503461013f57602036600319011261013f576020926001600160a01b039183919083610429610567565b16825285522054169051908152f35b505034610337578160031936011261033757905490516001600160a01b039091168152602090f35b8334610315578060031936011261031557610479610581565b80546001600160a01b03198116825581906001600160a01b03167f8be0079c531659141344cd1fd0a4f28419497f9722a3daafe3b4186f6b6457e08280a380f35b505034610337578160031936011261033757602090516127108152f35b5050346103375781600319360112610337576020906001549051908152f35b50913461031557602036600319011261031557506127106103bc60209360025490356105ac565b503461013f57602036600319011261013f5780359161053a610581565b61271083116103f257505060025580f35b8490346103375781600319360112610337576020906003548152f35b600435906001600160a01b038216820361057d57565b5f80fd5b5f546001600160a01b0316330361059457565b60405163118cdaa760e01b8152336004820152602490fd5b818102929181159184041417156105bf57565b634e487b7160e01b5f52601160045260245ffd5b90601f8019910116810190811067ffffffffffffffff8211176105f557604052565b634e487b7160e01b5f52604160045260245ffd5b519069ffffffffffffffffffff8216820361057d57565b60ff16604d81116105bf57600a0a90565b60ff166012039060ff82116105bf5756fea2646970667358221220246bbd3b8787391d06b695654356b3555347428beff85085d3963d7253a47a4664736f6c63430008140033000000000000000000000000000000000000000000000000000000000000006400000000000000000000000000000000000000000000000000000000000001f40000000000000000000000000000000000000000000000008ac7230489e80000",
        "nonce": "0x11c",
        "chainId": "0xaa36a7"
      },
      "additionalContracts": [],
      "isFixedGasLimit": false
    },
    {
      "hash": "0x4c014cdd25e692cefb849b4dee00580d891bc9aa6510012ee2cb89da452a1936",
      "transactionType": "CALL",
      "contractName": "FeeController",
      "contractAddress": "0x5e2cb57026c867726bdaa92c0c4866d599aab4f9",
      "function": "addToDataFeed(address,address)",
      "arguments": [
        "0x94a9D9AC8a22534E3FaCa9F4e7F2E2cf85d5E4C8",
        "0xA2F78ab2355fe2f984D808B5CeE7FD0A93D5270E"
      ],
      "transaction": {
        "from": "0xec2b1547294a4dd62c0ae651aeb01493f8e4cd74",
        "to": "0x5e2cb57026c867726bdaa92c0c4866d599aab4f9",
        "gas": "0xfbc3",
        "value": "0x0",
        "input": "0xaf1ab94400000000000000000000000094a9d9ac8a22534e3faca9f4e7f2e2cf85d5e4c8000000000000000000000000a2f78ab2355fe2f984d808b5cee7fd0a93d5270e",
        "nonce": "0x11d",
        "chainId": "0xaa36a7"
      },
      "additionalContracts": [],
      "isFixedGasLimit": false
    },
    {
      "hash": "0x0f90fa195da86614f0c26b8baf74f6be37cc1e4e29925a334ca8ecc3f3e0f187",
      "transactionType": "CALL",
      "contractName": "FeeController",
      "contractAddress": "0x5e2cb57026c867726bdaa92c0c4866d599aab4f9",
      "function": "addToDataFeed(address,address)",
      "arguments": [
        "0xFF34B3d4Aee8ddCd6F9AFFFB6Fe49bD371b8a357",
        "0x14866185B1962B63C3Ea9E03Bc1da838bab34C19"
      ],
      "transaction": {
        "from": "0xec2b1547294a4dd62c0ae651aeb01493f8e4cd74",
        "to": "0x5e2cb57026c867726bdaa92c0c4866d599aab4f9",
        "gas": "0xfbc3",
        "value": "0x0",
        "input": "0xaf1ab944000000000000000000000000ff34b3d4aee8ddcd6f9afffb6fe49bd371b8a35700000000000000000000000014866185b1962b63c3ea9e03bc1da838bab34c19",
        "nonce": "0x11e",
        "chainId": "0xaa36a7"
      },
      "additionalContracts": [],
      "isFixedGasLimit": false
    },
    {
      "hash": "0x6d6fe54f79144a88fd2854f6663e902c03623d4090fe7b4be9b7494d536de0c5",
      "transactionType": "CALL",
      "contractName": "FeeController",
      "contractAddress": "0x5e2cb57026c867726bdaa92c0c4866d599aab4f9",
      "function": "addToDataFeed(address,address)",
      "arguments": [
        "0xC558DBdd856501FCd9aaF1E62eae57A9F0629a3c",
        "0x694AA1769357215DE4FAC081bf1f309aDC325306"
      ],
      "transaction": {
        "from": "0xec2b1547294a4dd62c0ae651aeb01493f8e4cd74",
        "to": "0x5e2cb57026c867726bdaa92c0c4866d599aab4f9",
        "gas": "0xfbc3",
        "value": "0x0",
        "input": "0xaf1ab944000000000000000000000000c558dbdd856501fcd9aaf1e62eae57a9f0629a3c000000000000000000000000694aa1769357215de4fac081bf1f309adc325306",
        "nonce": "0x11f",
        "chainId": "0xaa36a7"
      },
      "additionalContracts": [],
      "isFixedGasLimit": false
    }
  ],
  "receipts": [
    {
      "status": "0x1",
      "cumulativeGasUsed": "0x15009b0",
      "logs": [
        {
          "address": "0x5e2cb57026c867726bdaa92c0c4866d599aab4f9",
          "topics": [
            "0x8be0079c531659141344cd1fd0a4f28419497f9722a3daafe3b4186f6b6457e0",
            "0x0000000000000000000000000000000000000000000000000000000000000000",
            "0x000000000000000000000000ec2b1547294a4dd62c0ae651aeb01493f8e4cd74"
          ],
          "data": "0x",
          "blockHash": "0x48f2ff7e77d4eea1530f18eef1f8c0a6500fd4cb398181fab5476811f5cbd73b",
          "blockNumber": "0x8c2b78",
          "blockTimestamp": "0x68c3b6bc",
          "transactionHash": "0x99e9f444e1f7dbdd0af0ed14690c16e06a8d29ad72ca899221a950353a8b083d",
          "transactionIndex": "0xa2",
          "logIndex": "0xe2",
          "removed": false
        }
      ],
      "logsBloom": "0x00000000000000000000000000000000000000000000000000800000000000000000000000000000000000000008000000000000000000000000200000000000000000000000000000000000000000000001000000000000000000008000000000000000020000000000000000000800000000000000000000000000000004400000000000000000000000000000000000000000000000000000000000000000000000000000000000000000000000000000000000000000000000000080000000000000000000000000000000000080000000000000000000000000000020000000000000000000000000000000000000000000000000000000000000000000",
      "type": "0x2",
      "transactionHash": "0x99e9f444e1f7dbdd0af0ed14690c16e06a8d29ad72ca899221a950353a8b083d",
      "transactionIndex": "0xa2",
      "blockHash": "0x48f2ff7e77d4eea1530f18eef1f8c0a6500fd4cb398181fab5476811f5cbd73b",
      "blockNumber": "0x8c2b78",
      "gasUsed": "0x7b5d9",
      "effectiveGasPrice": "0xf4273",
      "from": "0xec2b1547294a4dd62c0ae651aeb01493f8e4cd74",
      "to": null,
      "contractAddress": "0x5e2cb57026c867726bdaa92c0c4866d599aab4f9"
    },
    {
      "status": "0x1",
      "cumulativeGasUsed": "0x150bff6",
      "logs": [],
      "logsBloom": "0x00000000000000000000000000000000000000000000000000000000000000000000000000000000000000000000000000000000000000000000000000000000000000000000000000000000000000000000000000000000000000000000000000000000000000000000000000000000000000000000000000000000000000000000000000000000000000000000000000000000000000000000000000000000000000000000000000000000000000000000000000000000000000000000000000000000000000000000000000000000000000000000000000000000000000000000000000000000000000000000000000000000000000000000000000000000",
      "type": "0x2",
      "transactionHash": "0x4c014cdd25e692cefb849b4dee00580d891bc9aa6510012ee2cb89da452a1936",
      "transactionIndex": "0xa3",
      "blockHash": "0x48f2ff7e77d4eea1530f18eef1f8c0a6500fd4cb398181fab5476811f5cbd73b",
      "blockNumber": "0x8c2b78",
      "gasUsed": "0xb646",
      "effectiveGasPrice": "0xf4273",
      "from": "0xec2b1547294a4dd62c0ae651aeb01493f8e4cd74",
      "to": "0x5e2cb57026c867726bdaa92c0c4866d599aab4f9",
      "contractAddress": null
    },
    {
      "status": "0x1",
      "cumulativeGasUsed": "0x153b5de",
      "logs": [],
      "logsBloom": "0x00000000000000000000000000000000000000000000000000000000000000000000000000000000000000000000000000000000000000000000000000000000000000000000000000000000000000000000000000000000000000000000000000000000000000000000000000000000000000000000000000000000000000000000000000000000000000000000000000000000000000000000000000000000000000000000000000000000000000000000000000000000000000000000000000000000000000000000000000000000000000000000000000000000000000000000000000000000000000000000000000000000000000000000000000000000",
      "type": "0x2",
      "transactionHash": "0x0f90fa195da86614f0c26b8baf74f6be37cc1e4e29925a334ca8ecc3f3e0f187",
      "transactionIndex": "0xa6",
      "blockHash": "0x48f2ff7e77d4eea1530f18eef1f8c0a6500fd4cb398181fab5476811f5cbd73b",
      "blockNumber": "0x8c2b78",
      "gasUsed": "0xb646",
      "effectiveGasPrice": "0xf4273",
      "from": "0xec2b1547294a4dd62c0ae651aeb01493f8e4cd74",
      "to": "0x5e2cb57026c867726bdaa92c0c4866d599aab4f9",
      "contractAddress": null
    },
    {
      "status": "0x1",
      "cumulativeGasUsed": "0x1546c24",
      "logs": [],
      "logsBloom": "0x00000000000000000000000000000000000000000000000000000000000000000000000000000000000000000000000000000000000000000000000000000000000000000000000000000000000000000000000000000000000000000000000000000000000000000000000000000000000000000000000000000000000000000000000000000000000000000000000000000000000000000000000000000000000000000000000000000000000000000000000000000000000000000000000000000000000000000000000000000000000000000000000000000000000000000000000000000000000000000000000000000000000000000000000000000000",
      "type": "0x2",
      "transactionHash": "0x6d6fe54f79144a88fd2854f6663e902c03623d4090fe7b4be9b7494d536de0c5",
      "transactionIndex": "0xa7",
      "blockHash": "0x48f2ff7e77d4eea1530f18eef1f8c0a6500fd4cb398181fab5476811f5cbd73b",
      "blockNumber": "0x8c2b78",
      "gasUsed": "0xb646",
      "effectiveGasPrice": "0xf4273",
      "from": "0xec2b1547294a4dd62c0ae651aeb01493f8e4cd74",
      "to": "0x5e2cb57026c867726bdaa92c0c4866d599aab4f9",
      "contractAddress": null
    }
  ],
  "libraries": [],
  "pending": [],
  "returns": {
    "1": {
      "internal_type": "contract HelperConfig",
      "value": "0x5aAdFB43eF8dAF45DD80F4676345b7676f1D70e3"
    },
    "0": {
      "internal_type": "contract FeeController",
      "value": "0x5e2CB57026c867726BDAa92C0C4866D599AAb4f9"
    }
  },
  "timestamp": 1757656764465,
  "chain": 11155111,
  "commit": "4d31d0a"
}