{
  "transactions": [
    {
      "hash": "0x3d52bb3028a426321b0580b3f89c2180c9090c1a4365443c426a9c81c76ed1e3",
      "transactionType": "CALL",
      "contractName": "Bloom",
      "contractAddress": "0xc4e523b7d26186ec7f1dcbed8a64dabde795c98e",
      "function": "mint(address,uint256)",
      "arguments": [
        "0xec2B1547294a4dd62C0aE651aEb01493f8e4cD74",
        "5000000000000000000000000"
      ],
      "transaction": {
        "from": "0xec2b1547294a4dd62c0ae651aeb01493f8e4cd74",
        "to": "0xc4e523b7d26186ec7f1dcbed8a64dabde795c98e",
        "gas": "0xc1ef",
        "value": "0x0",
        "input": "0x40c10f19000000000000000000000000ec2b1547294a4dd62c0ae651aeb01493f8e4cd740000000000000000000000000000000000000000000422ca8b0a00a425000000",
        "nonce": "0x1b9",
        "chainId": "0xaa36a7"
      },
      "additionalContracts": [],
      "isFixedGasLimit": false
    },
    {
      "hash": "0xea5de036e9734675902ddb9cfd320b0e1609776887d6224aad29d19cf99e90ac",
      "transactionType": "CALL",
      "contractName": "Bloom",
      "contractAddress": "0xc4e523b7d26186ec7f1dcbed8a64dabde795c98e",
      "function": "transfer(address,uint256)",
      "arguments": [
        "0xc3235B99Bdf0F12e793BcA9B83A8BAD88E06C8B3",
        "100000000000000000000000"
      ],
      "transaction": {
        "from": "0xec2b1547294a4dd62c0ae651aeb01493f8e4cd74",
        "to": "0xc4e523b7d26186ec7f1dcbed8a64dabde795c98e",
        "gas": "0xc36e",
        "value": "0x0",
        "input": "0xa9059cbb000000000000000000000000c3235b99bdf0f12e793bca9b83a8bad88e06c8b300000000000000000000000000000000000000000000152d02c7e14af6800000",
        "nonce": "0x1ba",
        "chainId": "0xaa36a7"
      },
      "additionalContracts": [],
      "isFixedGasLimit": false
    },
    {
      "hash": "0xe285da15990eba82a6f9a9d66d5ec450664f1151cba4f19513ef7e09e2d373a0",
      "transactionType": "CALL",
      "contractName": "Bloom",
      "contractAddress": "0xc4e523b7d26186ec7f1dcbed8a64dabde795c98e",
      "function": "transfer(address,uint256)",
      "arguments": [
        "0x1d011983F10E491662dd1eA8Af0D6d6213B76A85",
        "100000000000000000000000"
      ],
      "transaction": {
        "from": "0xec2b1547294a4dd62c0ae651aeb01493f8e4cd74",
        "to": "0xc4e523b7d26186ec7f1dcbed8a64dabde795c98e",
        "gas": "0xc36e",
        "value": "0x0",
        "input": "0xa9059cbb0000000000000000000000001d011983f10e491662dd1ea8af0d6d6213b76a8500000000000000000000000000000000000000000000152d02c7e14af6800000",
        "nonce": "0x1bb",
        "chainId": "0xaa36a7"
      },
      "additionalContracts": [],
      "isFixedGasLimit": false
    },
    {
      "hash": "0x39ab46f00b8c41b8f0e75725d56cdff9125d725dacf58178158739e47f79c007",
      "transactionType": "CALL",
      "contractName": "Bloom",
      "contractAddress": "0xc4e523b7d26186ec7f1dcbed8a64dabde795c98e",
      "function": "transfer(address,uint256)",
      "arguments": [
        "0x8EA11de1130aA63aD0CD553B580fe0ca16C6fE06",
        "100000000000000000000000"
      ],
      "transaction": {
        "from": "0xec2b1547294a4dd62c0ae651aeb01493f8e4cd74",
        "to": "0xc4e523b7d26186ec7f1dcbed8a64dabde795c98e",
        "gas": "0xc36e",
        "value": "0x0",
        "input": "0xa9059cbb0000000000000000000000008ea11de1130aa63ad0cd553b580fe0ca16c6fe0600000000000000000000000000000000000000000000152d02c7e14af6800000",
        "nonce": "0x1bc",
        "chainId": "0xaa36a7"
      },
      "additionalContracts": [],
      "isFixedGasLimit": false
    },
    {
      "hash": "0xf1e532131c0ba25f38ffcb13317afc053cacc1518d6e1b8554fb82135531060b",
      "transactionType": "CALL",
      "contractName": "Bloom",
      "contractAddress": "0xc4e523b7d26186ec7f1dcbed8a64dabde795c98e",
      "function": "transfer(address,uint256)",
      "arguments": [
        "0x38eF052F7cf9c84940E6ca0e3b98411e0c15Ee0a",
        "100000000000000000000000"
      ],
      "transaction": {
        "from": "0xec2b1547294a4dd62c0ae651aeb01493f8e4cd74",
        "to": "0xc4e523b7d26186ec7f1dcbed8a64dabde795c98e",
        "gas": "0xc36e",
        "value": "0x0",
        "input": "0xa9059cbb00000000000000000000000038ef052f7cf9c84940e6ca0e3b98411e0c15ee0a00000000000000000000000000000000000000000000152d02c7e14af6800000",
        "nonce": "0x1bd",
        "chainId": "0xaa36a7"
      },
      "additionalContracts": [],
      "isFixedGasLimit": false
    },
    {
      "hash": "0xa5a65ec6dac8e2ec763db8fdc3448defc807438abd0720128a4a6841e0d6a959",
      "transactionType": "CALL",
      "contractName": "Bloom",
      "contractAddress": "0xc4e523b7d26186ec7f1dcbed8a64dabde795c98e",
      "function": "transfer(address,uint256)",
      "arguments": [
        "0x5709666308b6d4a7129aCc66d2237beE65083097",
        "100000000000000000000000"
      ],
      "transaction": {
        "from": "0xec2b1547294a4dd62c0ae651aeb01493f8e4cd74",
        "to": "0xc4e523b7d26186ec7f1dcbed8a64dabde795c98e",
        "gas": "0xc36e",
        "value": "0x0",
        "input": "0xa9059cbb0000000000000000000000005709666308b6d4a7129acc66d2237bee6508309700000000000000000000000000000000000000000000152d02c7e14af6800000",
        "nonce": "0x1be",
        "chainId": "0xaa36a7"
      },
      "additionalContracts": [],
      "isFixedGasLimit": false
    },
    {
      "hash": "0x14c28485872909c3b19ff2797657bdc5a8feec6eb2903328443de09ef1bf02ee",
      "transactionType": "CALL",
      "contractName": "Bloom",
      "contractAddress": "0xc4e523b7d26186ec7f1dcbed8a64dabde795c98e",
      "function": "transfer(address,uint256)",
      "arguments": [
        "0x4bE1d42471E6D6a078A28cf4f530A2F564100419",
        "100000000000000000000000"
      ],
      "transaction": {
        "from": "0xec2b1547294a4dd62c0ae651aeb01493f8e4cd74",
        "to": "0xc4e523b7d26186ec7f1dcbed8a64dabde795c98e",
        "gas": "0xc36e",
        "value": "0x0",
        "input": "0xa9059cbb0000000000000000000000004be1d42471e6d6a078a28cf4f530a2f56410041900000000000000000000000000000000000000000000152d02c7e14af6800000",
        "nonce": "0x1bf",
        "chainId": "0xaa36a7"
      },
      "additionalContracts": [],
      "isFixedGasLimit": false
    },
    {
      "hash": "0x70870151cdbffc9c16268162354801107199851479bc060847e5aedd6f1e031d",
      "transactionType": "CALL",
      "contractName": "Bloom",
      "contractAddress": "0xc4e523b7d26186ec7f1dcbed8a64dabde795c98e",
      "function": "transfer(address,uint256)",
      "arguments": [
        "0x91FF08D659A2bF96dF7F7b5e290677a133Ed81B5",
        "100000000000000000000000"
      ],
      "transaction": {
        "from": "0xec2b1547294a4dd62c0ae651aeb01493f8e4cd74",
        "to": "0xc4e523b7d26186ec7f1dcbed8a64dabde795c98e",
        "gas": "0xc36e",
        "value": "0x0",
        "input": "0xa9059cbb00000000000000000000000091ff08d659a2bf96df7f7b5e290677a133ed81b500000000000000000000000000000000000000000000152d02c7e14af6800000",
        "nonce": "0x1c0",
        "chainId": "0xaa36a7"
      },
      "additionalContracts": [],
      "isFixedGasLimit": false
    },
    {
      "hash": "0x6fe6c43dc4d60404b1ad67cda21c719f84e5d8b40a7b2269fd4b1934256d2c21",
      "transactionType": "CALL",
      "contractName": "Bloom",
      "contractAddress": "0xc4e523b7d26186ec7f1dcbed8a64dabde795c98e",
      "function": "transfer(address,uint256)",
      "arguments": [
        "0x77D5f1995B2Ef0bF3DfF06bbb1943F54c644AE7f",
        "100000000000000000000000"
      ],
      "transaction": {
        "from": "0xec2b1547294a4dd62c0ae651aeb01493f8e4cd74",
        "to": "0xc4e523b7d26186ec7f1dcbed8a64dabde795c98e",
        "gas": "0xc36e",
        "value": "0x0",
        "input": "0xa9059cbb00000000000000000000000077d5f1995b2ef0bf3dff06bbb1943f54c644ae7f00000000000000000000000000000000000000000000152d02c7e14af6800000",
        "nonce": "0x1c1",
        "chainId": "0xaa36a7"
      },
      "additionalContracts": [],
      "isFixedGasLimit": false
    },
    {
      "hash": "0x38b29dd65abeb9dd1d1ee85c29215b331e73c23bdd1568099d4ad751fc077a9b",
      "transactionType": "CALL",
      "contractName": "Bloom",
      "contractAddress": "0xc4e523b7d26186ec7f1dcbed8a64dabde795c98e",
      "function": "transfer(address,uint256)",
      "arguments": [
        "0x6AeCa04B7208d65B35aAa53061Bd3d6b348fe72f",
        "100000000000000000000000"
      ],
      "transaction": {
        "from": "0xec2b1547294a4dd62c0ae651aeb01493f8e4cd74",
        "to": "0xc4e523b7d26186ec7f1dcbed8a64dabde795c98e",
        "gas": "0xc36e",
        "value": "0x0",
        "input": "0xa9059cbb0000000000000000000000006aeca04b7208d65b35aaa53061bd3d6b348fe72f00000000000000000000000000000000000000000000152d02c7e14af6800000",
        "nonce": "0x1c2",
        "chainId": "0xaa36a7"
      },
      "additionalContracts": [],
      "isFixedGasLimit": false
    },
    {
      "hash": "0x1adeae72982fd8cc1490a7f87480b61c4425ece3e506cd3c22fd650b4361bacf",
      "transactionType": "CALL",
      "contractName": "Bloom",
      "contractAddress": "0xc4e523b7d26186ec7f1dcbed8a64dabde795c98e",
      "function": "transfer(address,uint256)",
      "arguments": [
        "0xE96fe7aD34B1a276C7cBc8ec1b0dB4866976FcA4",
        "100000000000000000000000"
      ],
      "transaction": {
        "from": "0xec2b1547294a4dd62c0ae651aeb01493f8e4cd74",
        "to": "0xc4e523b7d26186ec7f1dcbed8a64dabde795c98e",
        "gas": "0xc36e",
        "value": "0x0",
        "input": "0xa9059cbb000000000000000000000000e96fe7ad34b1a276c7cbc8ec1b0db4866976fca400000000000000000000000000000000000000000000152d02c7e14af6800000",
        "nonce": "0x1c3",
        "chainId": "0xaa36a7"
      },
      "additionalContracts": [],
      "isFixedGasLimit": false
    }
  ],
  "receipts": [
    {
      "status": "0x1",
      "cumulativeGasUsed": "0x1079bcb",
      "logs": [
        {
          "address": "0xc4e523b7d26186ec7f1dcbed8a64dabde795c98e",
          "topics": [
            "0xddf252ad1be2c89b69c2b068fc378daa952ba7f163c4a11628f55a4df523b3ef",
            "0x0000000000000000000000000000000000000000000000000000000000000000",
            "0x000000000000000000000000ec2b1547294a4dd62c0ae651aeb01493f8e4cd74"
          ],
          "data": "0x0000000000000000000000000000000000000000000422ca8b0a00a425000000",
          "blockHash": "0x657552199d96ebfe221e273658da6e5319717f87d393531cbdcb2039219c97fe",
          "blockNumber": "0x8e40b1",
          "blockTimestamp": "0x68ddac7c",
          "transactionHash": "0x3d52bb3028a426321b0580b3f89c2180c9090c1a4365443c426a9c81c76ed1e3",
          "transactionIndex": "0x4c",
          "logIndex": "0x7f",
          "removed": false
        }
      ],
      "logsBloom": "0x00000000000000000000000000000000000000000000000000000000000000000000000000000000000000000000000000000000000000000000000000000000000000000000000000000008000000000000000000000000000000000000000000000000020000000000000000000800000000000000000000000010000004000000000000000000000000000042000000000000000000000000000000000000000000000000000000000000000000000000000000000000000000001080000000000002000000000000000000000080000000000000000000000000000020000000000000000000000000000000000000000000000000000000000000000000",
      "type": "0x2",
      "transactionHash": "0x3d52bb3028a426321b0580b3f89c2180c9090c1a4365443c426a9c81c76ed1e3",
      "transactionIndex": "0x4c",
      "blockHash": "0x657552199d96ebfe221e273658da6e5319717f87d393531cbdcb2039219c97fe",
      "blockNumber": "0x8e40b1",
      "gasUsed": "0x849b",
      "effectiveGasPrice": "0xf597f",
      "from": "0xec2b1547294a4dd62c0ae651aeb01493f8e4cd74",
      "to": "0xc4e523b7d26186ec7f1dcbed8a64dabde795c98e",
      "contractAddress": null
    },
    {
      "status": "0x1",
      "cumulativeGasUsed": "0x108216c",
      "logs": [
        {
          "address": "0xc4e523b7d26186ec7f1dcbed8a64dabde795c98e",
          "topics": [
            "0xddf252ad1be2c89b69c2b068fc378daa952ba7f163c4a11628f55a4df523b3ef",
            "0x000000000000000000000000ec2b1547294a4dd62c0ae651aeb01493f8e4cd74",
            "0x000000000000000000000000c3235b99bdf0f12e793bca9b83a8bad88e06c8b3"
          ],
          "data": "0x00000000000000000000000000000000000000000000152d02c7e14af6800000",
          "blockHash": "0x657552199d96ebfe221e273658da6e5319717f87d393531cbdcb2039219c97fe",
          "blockNumber": "0x8e40b1",
          "blockTimestamp": "0x68ddac7c",
          "transactionHash": "0xea5de036e9734675902ddb9cfd320b0e1609776887d6224aad29d19cf99e90ac",
          "transactionIndex": "0x4d",
          "logIndex": "0x80",
          "removed": false
        }
      ],
      "logsBloom": "0x00000000000000000000000000000000000000000000000000000000000000000000000000000000000000000000000000000000000000000000000000000000010000000000000000000008000000000000000000000000004000000000000000000000000000000000000000000000000000000000000000000010000004000000000000200000000000000042000000000000000000000000000000000000000000000000000000000000000000000000000000000000000000001080000000000002000000000000000000000080000000000000000000000000000000000000000000000000000000000000000000000000000000000000000000000000",
      "type": "0x2",
      "transactionHash": "0xea5de036e9734675902ddb9cfd320b0e1609776887d6224aad29d19cf99e90ac",
      "transactionIndex": "0x4d",
      "blockHash": "0x657552199d96ebfe221e273658da6e5319717f87d393531cbdcb2039219c97fe",
      "blockNumber": "0x8e40b1",
      "gasUsed": "0x85a1",
      "effectiveGasPrice": "0xf597f",
      "from": "0xec2b1547294a4dd62c0ae651aeb01493f8e4cd74",
      "to": "0xc4e523b7d26186ec7f1dcbed8a64dabde795c98e",
      "contractAddress": null
    },
    {
      "status": "0x1",
      "cumulativeGasUsed": "0x108a70d",
      "logs": [
        {
          "address": "0xc4e523b7d26186ec7f1dcbed8a64dabde795c98e",
          "topics": [
            "0xddf252ad1be2c89b69c2b068fc378daa952ba7f163c4a11628f55a4df523b3ef",
            "0x000000000000000000000000ec2b1547294a4dd62c0ae651aeb01493f8e4cd74",
            "0x0000000000000000000000001d011983f10e491662dd1ea8af0d6d6213b76a85"
          ],
          "data": "0x00000000000000000000000000000000000000000000152d02c7e14af6800000",
          "blockHash": "0x657552199d96ebfe221e273658da6e5319717f87d393531cbdcb2039219c97fe",
          "blockNumber": "0x8e40b1",
          "blockTimestamp": "0x68ddac7c",
          "transactionHash": "0xe285da15990eba82a6f9a9d66d5ec450664f1151cba4f19513ef7e09e2d373a0",
          "transactionIndex": "0x4e",
          "logIndex": "0x81",
          "removed": false
        }
      ],
      "logsBloom": "0x00000000000000000000000000000000000000000000000000000000000000000000000000000000000000000000000000000000000000000000000000000000000000000000000000000008000000000000000100000000000000000000000000000000000000000000000000000000000000000000000000000010000004000000000000000020000000000042000000000000000000000000000000000000000000000000000000000000000000000000000000000000000000001080000000000002000000000000000000000080000000000000000000000000000000000000000000000000000000000000000000000000000000000000000010000000",
      "type": "0x2",
      "transactionHash": "0xe285da15990eba82a6f9a9d66d5ec450664f1151cba4f19513ef7e09e2d373a0",
      "transactionIndex": "0x4e",
      "blockHash": "0x657552199d96ebfe221e273658da6e5319717f87d393531cbdcb2039219c97fe",
      "blockNumber": "0x8e40b1",
      "gasUsed": "0x85a1",
      "effectiveGasPrice": "0xf597f",
      "from": "0xec2b1547294a4dd62c0ae651aeb01493f8e4cd74",
      "to": "0xc4e523b7d26186ec7f1dcbed8a64dabde795c98e",
      "contractAddress": null
    },
    {
      "status": "0x1",
      "cumulativeGasUsed": "0x109f01c",
      "logs": [
        {
          "address": "0xc4e523b7d26186ec7f1dcbed8a64dabde795c98e",
          "topics": [
            "0xddf252ad1be2c89b69c2b068fc378daa952ba7f163c4a11628f55a4df523b3ef",
            "0x000000000000000000000000ec2b1547294a4dd62c0ae651aeb01493f8e4cd74",
            "0x00000000000000000000000038ef052f7cf9c84940e6ca0e3b98411e0c15ee0a"
          ],
          "data": "0x00000000000000000000000000000000000000000000152d02c7e14af6800000",
          "blockHash": "0x657552199d96ebfe221e273658da6e5319717f87d393531cbdcb2039219c97fe",
          "blockNumber": "0x8e40b1",
          "blockTimestamp": "0x68ddac7c",
          "transactionHash": "0xf1e532131c0ba25f38ffcb13317afc053cacc1518d6e1b8554fb82135531060b",
          "transactionIndex": "0x50",
          "logIndex": "0x82",
          "removed": false
        }
      ],
      "logsBloom": "0x00000000000000000000000000000000000000000000000000000000000000000000000000000000000000000040000000010000000040000000000000000000000000000000000000000008000000000000000000000000000000000000000000000000000000000000000000000000000000000000000000000010000004000000000000000000000000000042000000000000000000000000000000000000000000000000000000000000000000000000000000000000000000001080000000000002000000000000000000000080000000000000000000000000000000000000000000000000000000000000000000000000000000000000000000000000",
      "type": "0x2",
      "transactionHash": "0xf1e532131c0ba25f38ffcb13317afc053cacc1518d6e1b8554fb82135531060b",
      "transactionIndex": "0x50",
      "blockHash": "0x657552199d96ebfe221e273658da6e5319717f87d393531cbdcb2039219c97fe",
      "blockNumber": "0x8e40b1",
      "gasUsed": "0x85a1",
      "effectiveGasPrice": "0xf597f",
      "from": "0xec2b1547294a4dd62c0ae651aeb01493f8e4cd74",
      "to": "0xc4e523b7d26186ec7f1dcbed8a64dabde795c98e",
      "contractAddress": null
    },
    {
      "status": "0x1",
      "cumulativeGasUsed": "0x10a75bd",
      "logs": [
        {
          "address": "0xc4e523b7d26186ec7f1dcbed8a64dabde795c98e",
          "topics": [
            "0xddf252ad1be2c89b69c2b068fc378daa952ba7f163c4a11628f55a4df523b3ef",
            "0x000000000000000000000000ec2b1547294a4dd62c0ae651aeb01493f8e4cd74",
            "0x0000000000000000000000005709666308b6d4a7129acc66d2237bee65083097"
          ],
          "data": "0x00000000000000000000000000000000000000000000152d02c7e14af6800000",
          "blockHash": "0x657552199d96ebfe221e273658da6e5319717f87d393531cbdcb2039219c97fe",
          "blockNumber": "0x8e40b1",
          "blockTimestamp": "0x68ddac7c",
          "transactionHash": "0xa5a65ec6dac8e2ec763db8fdc3448defc807438abd0720128a4a6841e0d6a959",
          "transactionIndex": "0x51",
          "logIndex": "0x83",
          "removed": false
        }
      ],
      "logsBloom": "0x01000000000000000000000000000000000000000000000000000000000000000000000000000000000000000000000000000000000000000000000000000000000000000000000000000008000000000000000000000000000000000000000000000000000000000000000000000000000000000000000000000010000004000000000000000200000000000042000000000000000000000000000000000000000000000000000000000000000000000000000000000000000000001080000000000002000000000000000000000080000000000000000000000010000000000000000000000000000000000000000000000000000000000000000000000000",
      "type": "0x2",
      "transactionHash": "0xa5a65ec6dac8e2ec763db8fdc3448defc807438abd0720128a4a6841e0d6a959",
      "transactionIndex": "0x51",
      "blockHash": "0x657552199d96ebfe221e273658da6e5319717f87d393531cbdcb2039219c97fe",
      "blockNumber": "0x8e40b1",
      "gasUsed": "0x85a1",
      "effectiveGasPrice": "0xf597f",
      "from": "0xec2b1547294a4dd62c0ae651aeb01493f8e4cd74",
      "to": "0xc4e523b7d26186ec7f1dcbed8a64dabde795c98e",
      "contractAddress": null
    },
    {
      "status": "0x1",
      "cumulativeGasUsed": "0x10afb5e",
      "logs": [
        {
          "address": "0xc4e523b7d26186ec7f1dcbed8a64dabde795c98e",
          "topics": [
            "0xddf252ad1be2c89b69c2b068fc378daa952ba7f163c4a11628f55a4df523b3ef",
            "0x000000000000000000000000ec2b1547294a4dd62c0ae651aeb01493f8e4cd74",
            "0x0000000000000000000000004be1d42471e6d6a078a28cf4f530a2f564100419"
          ],
          "data": "0x00000000000000000000000000000000000000000000152d02c7e14af6800000",
          "blockHash": "0x657552199d96ebfe221e273658da6e5319717f87d393531cbdcb2039219c97fe",
          "blockNumber": "0x8e40b1",
          "blockTimestamp": "0x68ddac7c",
          "transactionHash": "0x14c28485872909c3b19ff2797657bdc5a8feec6eb2903328443de09ef1bf02ee",
          "transactionIndex": "0x52",
          "logIndex": "0x84",
          "removed": false
        }
      ],
      "logsBloom": "0x00000000000000000000000000000000000000000000000000000000000000000000000000000000000000000000000000000000000000000200000000000000000000000000000000000008000000000000000000000000000000000000000000000000000000000000000000000000000000000000000000000010000004000000000000000000000000000042000000000000000040000000000000000000000000000000000000000000000000000000000000000000000000001080000000000002000000010000000000000080000000000000000000000000000000000000000000000000000000000000000000000000000000000000000000000000",
      "type": "0x2",
      "transactionHash": "0x14c28485872909c3b19ff2797657bdc5a8feec6eb2903328443de09ef1bf02ee",
      "transactionIndex": "0x52",
      "blockHash": "0x657552199d96ebfe221e273658da6e5319717f87d393531cbdcb2039219c97fe",
      "blockNumber": "0x8e40b1",
      "gasUsed": "0x85a1",
      "effectiveGasPrice": "0xf597f",
      "from": "0xec2b1547294a4dd62c0ae651aeb01493f8e4cd74",
      "to": "0xc4e523b7d26186ec7f1dcbed8a64dabde795c98e",
      "contractAddress": null
    },
    {
      "status": "0x1",
      "cumulativeGasUsed": "0x10b80ff",
      "logs": [
        {
          "address": "0xc4e523b7d26186ec7f1dcbed8a64dabde795c98e",
          "topics": [
            "0xddf252ad1be2c89b69c2b068fc378daa952ba7f163c4a11628f55a4df523b3ef",
            "0x000000000000000000000000ec2b1547294a4dd62c0ae651aeb01493f8e4cd74",
            "0x00000000000000000000000091ff08d659a2bf96df7f7b5e290677a133ed81b5"
          ],
          "data": "0x00000000000000000000000000000000000000000000152d02c7e14af6800000",
          "blockHash": "0x657552199d96ebfe221e273658da6e5319717f87d393531cbdcb2039219c97fe",
          "blockNumber": "0x8e40b1",
          "blockTimestamp": "0x68ddac7c",
          "transactionHash": "0x70870151cdbffc9c16268162354801107199851479bc060847e5aedd6f1e031d",
          "transactionIndex": "0x53",
          "logIndex": "0x85",
          "removed": false
        }
      ],
      "logsBloom": "0x00000000000000000000000000000000000000000000000000000000008000000000000000000000000000000000000000000000000000000000000000000000000000000000000000000008000000000000000000020000000000000000000000000000000000000000000000040000000000000000000000000010000004000000000000000000000000000042000000000000000000000000000000000000000000000000000000000000000000000000000000000000000000001080000000000002000000000000000000000080000000000000000000000000000000000000000000000000000000000000000000000000000000000000000000000000",
      "type": "0x2",
      "transactionHash": "0x70870151cdbffc9c16268162354801107199851479bc060847e5aedd6f1e031d",
      "transactionIndex": "0x53",
      "blockHash": "0x657552199d96ebfe221e273658da6e5319717f87d393531cbdcb2039219c97fe",
      "blockNumber": "0x8e40b1",
      "gasUsed": "0x85a1",
      "effectiveGasPrice": "0xf597f",
      "from": "0xec2b1547294a4dd62c0ae651aeb01493f8e4cd74",
      "to": "0xc4e523b7d26186ec7f1dcbed8a64dabde795c98e",
      "contractAddress": null
    },
    {
      "status": "0x1",
      "cumulativeGasUsed": "0x10c06a0",
      "logs": [
        {
          "address": "0xc4e523b7d26186ec7f1dcbed8a64dabde795c98e",
          "topics": [
            "0xddf252ad1be2c89b69c2b068fc378daa952ba7f163c4a11628f55a4df523b3ef",
            "0x000000000000000000000000ec2b1547294a4dd62c0ae651aeb01493f8e4cd74",
            "0x00000000000000000000000077d5f1995b2ef0bf3dff06bbb1943f54c644ae7f"
          ],
          "data": "0x00000000000000000000000000000000000000000000152d02c7e14af6800000",
          "blockHash": "0x657552199d96ebfe221e273658da6e5319717f87d393531cbdcb2039219c97fe",
          "blockNumber": "0x8e40b1",
          "blockTimestamp": "0x68ddac7c",
          "transactionHash": "0x6fe6c43dc4d60404b1ad67cda21c719f84e5d8b40a7b2269fd4b1934256d2c21",
          "transactionIndex": "0x54",
          "logIndex": "0x86",
          "removed": false
        }
      ],
      "logsBloom": "0x00000000000000000002000000000000000000000000000000000000000000000000000000000000000000000000000000000000000000000000000000000000000000000000000000000008000000000000000000000000000000000000000000000000000000000000000000000000000000000000000000000010000004000000000000000000000000000042000000000000000000000000000000000000000000000000000000000000000000000000000000000000000000001080000000000002000400000000000000000080000000000000000000000000000000000000000000000000000000000000000000000000000000000000000000000000",
      "type": "0x2",
      "transactionHash": "0x6fe6c43dc4d60404b1ad67cda21c719f84e5d8b40a7b2269fd4b1934256d2c21",
      "transactionIndex": "0x54",
      "blockHash": "0x657552199d96ebfe221e273658da6e5319717f87d393531cbdcb2039219c97fe",
      "blockNumber": "0x8e40b1",
      "gasUsed": "0x85a1",
      "effectiveGasPrice": "0xf597f",
      "from": "0xec2b1547294a4dd62c0ae651aeb01493f8e4cd74",
      "to": "0xc4e523b7d26186ec7f1dcbed8a64dabde795c98e",
      "contractAddress": null
    },
    {
      "status": "0x1",
      "cumulativeGasUsed": "0x10c8c41",
      "logs": [
        {
          "address": "0xc4e523b7d26186ec7f1dcbed8a64dabde795c98e",
          "topics": [
            "0xddf252ad1be2c89b69c2b068fc378daa952ba7f163c4a11628f55a4df523b3ef",
            "0x000000000000000000000000ec2b1547294a4dd62c0ae651aeb01493f8e4cd74",
            "0x0000000000000000000000006aeca04b7208d65b35aaa53061bd3d6b348fe72f"
          ],
          "data": "0x00000000000000000000000000000000000000000000152d02c7e14af6800000",
          "blockHash": "0x657552199d96ebfe221e273658da6e5319717f87d393531cbdcb2039219c97fe",
          "blockNumber": "0x8e40b1",
          "blockTimestamp": "0x68ddac7c",
          "transactionHash": "0x38b29dd65abeb9dd1d1ee85c29215b331e73c23bdd1568099d4ad751fc077a9b",
          "transactionIndex": "0x55",
          "logIndex": "0x87",
          "removed": false
        }
      ],
      "logsBloom": "0x00000000000000000000000000000000000000000000000000000000000000000000000000000000000000000000000000000000000000000000000000000000000000000000000000000008000000000000000000000000000000000000000000000000000000000000000000000000000000000000000000000010000004000000000000000000000000000046000000000000000000000000000000000000000000000000010000000000000000000000000000000000000000001080000000000002000000000000000000000080000000000000000000008000000000000000000000000000000000000000000000000000000000000000000000000000",
      "type": "0x2",
      "transactionHash": "0x38b29dd65abeb9dd1d1ee85c29215b331e73c23bdd1568099d4ad751fc077a9b",
      "transactionIndex": "0x55",
      "blockHash": "0x657552199d96ebfe221e273658da6e5319717f87d393531cbdcb2039219c97fe",
      "blockNumber": "0x8e40b1",
      "gasUsed": "0x85a1",
      "effectiveGasPrice": "0xf597f",
      "from": "0xec2b1547294a4dd62c0ae651aeb01493f8e4cd74",
      "to": "0xc4e523b7d26186ec7f1dcbed8a64dabde795c98e",
      "contractAddress": null
    },
    {
      "status": "0x1",
      "cumulativeGasUsed": "0x10d11e2",
      "logs": [
        {
          "address": "0xc4e523b7d26186ec7f1dcbed8a64dabde795c98e",
          "topics": [
            "0xddf252ad1be2c89b69c2b068fc378daa952ba7f163c4a11628f55a4df523b3ef",
            "0x000000000000000000000000ec2b1547294a4dd62c0ae651aeb01493f8e4cd74",
            "0x000000000000000000000000e96fe7ad34b1a276c7cbc8ec1b0db4866976fca4"
          ],
          "data": "0x00000000000000000000000000000000000000000000152d02c7e14af6800000",
          "blockHash": "0x657552199d96ebfe221e273658da6e5319717f87d393531cbdcb2039219c97fe",
          "blockNumber": "0x8e40b1",
          "blockTimestamp": "0x68ddac7c",
          "transactionHash": "0x1adeae72982fd8cc1490a7f87480b61c4425ece3e506cd3c22fd650b4361bacf",
          "transactionIndex": "0x56",
          "logIndex": "0x88",
          "removed": false
        }
      ],
      "logsBloom": "0x00000000000000000000000000000000000000000000000000000000000000000000000000000200000000000000000000000000000000200000000000000000000000000000000000000008000000000000000000000000000000000000000000000000000000000000000000000000000000000000000000000010000004000000000000000000000000000042000000000000000000100000000000000000000000000000000000000000000000000000000000000000000000001080000000000002000000000000000000000080000000000000000000000000000000000000000000000000000000000000000000000000000000000000000000000000",
      "type": "0x2",
      "transactionHash": "0x1adeae72982fd8cc1490a7f87480b61c4425ece3e506cd3c22fd650b4361bacf",
      "transactionIndex": "0x56",
      "blockHash": "0x657552199d96ebfe221e273658da6e5319717f87d393531cbdcb2039219c97fe",
      "blockNumber": "0x8e40b1",
      "gasUsed": "0x85a1",
      "effectiveGasPrice": "0xf597f",
      "from": "0xec2b1547294a4dd62c0ae651aeb01493f8e4cd74",
      "to": "0xc4e523b7d26186ec7f1dcbed8a64dabde795c98e",
      "contractAddress": null
    }
  ],
  "libraries": [],
  "pending": [],
  "returns": {},
  "timestamp": 1759358076692,
  "chain": 11155111,
  "commit": "8ad19b5"
}