{
  "transactions": [
    {
      "hash": "0x26189b311b5584b998d76f39ecf6545c6bcd07ab499eec67950527fb41f02d10",
      "transactionType": "CALL",
      "contractName": "Bloom",
      "contractAddress": "0xc4e523b7d26186ec7f1dcbed8a64dabde795c98e",
      "function": "mint(address,uint256)",
      "arguments": [
        "0xec2B1547294a4dd62C0aE651aEb01493f8e4cD74",
        "5000000000000000000000000"
      ],
      "transaction": {
        "from": "0xec2b1547294a4dd62c0ae651aeb01493f8e4cd74",
        "to": "0xc4e523b7d26186ec7f1dcbed8a64dabde795c98e",
        "gas": "0x1136c",
        "value": "0x0",
        "input": "0x40c10f19000000000000000000000000ec2b1547294a4dd62c0ae651aeb01493f8e4cd740000000000000000000000000000000000000000000422ca8b0a00a425000000",
        "nonce": "0x17b",
        "chainId": "0xaa36a7"
      },
      "additionalContracts": [],
      "isFixedGasLimit": false
    },
    {
      "hash": "0x6d9349a6640231ae41169202f4afb1c2c6660de4a09991de98824d322272de63",
      "transactionType": "CALL",
      "contractName": null,
      "contractAddress": "0xe96fe7ad34b1a276c7cbc8ec1b0db4866976fca4",
      "function": null,
      "arguments": null,
      "transaction": {
        "from": "0xec2b1547294a4dd62c0ae651aeb01493f8e4cd74",
        "to": "0xe96fe7ad34b1a276c7cbc8ec1b0db4866976fca4",
        "gas": "0x714d",
        "value": "0x38d7ea4c68000",
        "input": "0x",
        "nonce": "0x17c",
        "chainId": "0xaa36a7"
      },
      "additionalContracts": [],
      "isFixedGasLimit": false
    },
    {
      "hash": "0x357215372960dfe2cd4ac9871ad3057a4247afe378c55cd2a8b10845d3c26e81",
      "transactionType": "CALL",
      "contractName": "Bloom",
      "contractAddress": "0xc4e523b7d26186ec7f1dcbed8a64dabde795c98e",
      "function": "transfer(address,uint256)",
      "arguments": [
        "0xE96fe7aD34B1a276C7cBc8ec1b0dB4866976FcA4",
        "20000000000000000000000"
      ],
      "transaction": {
        "from": "0xec2b1547294a4dd62c0ae651aeb01493f8e4cd74",
        "to": "0xc4e523b7d26186ec7f1dcbed8a64dabde795c98e",
        "gas": "0x114d5",
        "value": "0x0",
        "input": "0xa9059cbb000000000000000000000000e96fe7ad34b1a276c7cbc8ec1b0db4866976fca400000000000000000000000000000000000000000000043c33c1937564800000",
        "nonce": "0x17d",
        "chainId": "0xaa36a7"
      },
      "additionalContracts": [],
      "isFixedGasLimit": false
    },
    {
      "hash": "0x858a186e084012935237298e73352666634706ce46d02e407a83f73070f6ad32",
      "transactionType": "CALL",
      "contractName": null,
      "contractAddress": "0x6aeca04b7208d65b35aaa53061bd3d6b348fe72f",
      "function": null,
      "arguments": null,
      "transaction": {
        "from": "0xec2b1547294a4dd62c0ae651aeb01493f8e4cd74",
        "to": "0x6aeca04b7208d65b35aaa53061bd3d6b348fe72f",
        "gas": "0x714d",
        "value": "0x38d7ea4c68000",
        "input": "0x",
        "nonce": "0x17e",
        "chainId": "0xaa36a7"
      },
      "additionalContracts": [],
      "isFixedGasLimit": false
    },
    {
      "hash": "0x3674ae861aa986b86960c8b907682ed435abcfca8eb0e7ed489bb5887c85f8e4",
      "transactionType": "CALL",
      "contractName": "Bloom",
      "contractAddress": "0xc4e523b7d26186ec7f1dcbed8a64dabde795c98e",
      "function": "transfer(address,uint256)",
      "arguments": [
        "0x6AeCa04B7208d65B35aAa53061Bd3d6b348fe72f",
        "20000000000000000000000"
      ],
      "transaction": {
        "from": "0xec2b1547294a4dd62c0ae651aeb01493f8e4cd74",
        "to": "0xc4e523b7d26186ec7f1dcbed8a64dabde795c98e",
        "gas": "0x114d5",
        "value": "0x0",
        "input": "0xa9059cbb0000000000000000000000006aeca04b7208d65b35aaa53061bd3d6b348fe72f00000000000000000000000000000000000000000000043c33c1937564800000",
        "nonce": "0x17f",
        "chainId": "0xaa36a7"
      },
      "additionalContracts": [],
      "isFixedGasLimit": false
    },
    {
      "hash": "0x46706e2a080915dd7d8442e5c04a8762811e22b16dd2c65f7dd7446517436c05",
      "transactionType": "CALL",
      "contractName": null,
      "contractAddress": "0x77d5f1995b2ef0bf3dff06bbb1943f54c644ae7f",
      "function": null,
      "arguments": null,
      "transaction": {
        "from": "0xec2b1547294a4dd62c0ae651aeb01493f8e4cd74",
        "to": "0x77d5f1995b2ef0bf3dff06bbb1943f54c644ae7f",
        "gas": "0x714d",
        "value": "0x38d7ea4c68000",
        "input": "0x",
        "nonce": "0x180",
        "chainId": "0xaa36a7"
      },
      "additionalContracts": [],
      "isFixedGasLimit": false
    },
    {
      "hash": "0xf3a7b9c11b92999ebc20d207b60b75ff591acc790820b09fbc51dfbd096d5ae7",
      "transactionType": "CALL",
      "contractName": "Bloom",
      "contractAddress": "0xc4e523b7d26186ec7f1dcbed8a64dabde795c98e",
      "function": "transfer(address,uint256)",
      "arguments": [
        "0x77D5f1995B2Ef0bF3DfF06bbb1943F54c644AE7f",
        "20000000000000000000000"
      ],
      "transaction": {
        "from": "0xec2b1547294a4dd62c0ae651aeb01493f8e4cd74",
        "to": "0xc4e523b7d26186ec7f1dcbed8a64dabde795c98e",
        "gas": "0x114d5",
        "value": "0x0",
        "input": "0xa9059cbb00000000000000000000000077d5f1995b2ef0bf3dff06bbb1943f54c644ae7f00000000000000000000000000000000000000000000043c33c1937564800000",
        "nonce": "0x181",
        "chainId": "0xaa36a7"
      },
      "additionalContracts": [],
      "isFixedGasLimit": false
    },
    {
      "hash": "0x88f0fda78d3f9c488f3523991b53589b692fbcefcfc2463555833d22fc9044f2",
      "transactionType": "CALL",
      "contractName": null,
      "contractAddress": "0x91ff08d659a2bf96df7f7b5e290677a133ed81b5",
      "function": null,
      "arguments": null,
      "transaction": {
        "from": "0xec2b1547294a4dd62c0ae651aeb01493f8e4cd74",
        "to": "0x91ff08d659a2bf96df7f7b5e290677a133ed81b5",
        "gas": "0x714d",
        "value": "0x38d7ea4c68000",
        "input": "0x",
        "nonce": "0x182",
        "chainId": "0xaa36a7"
      },
      "additionalContracts": [],
      "isFixedGasLimit": false
    },
    {
      "hash": "0xee2ef94ae617a22b9a3ed92a8e47f2393534d403df7d68d6ee6ca3bf17c053d7",
      "transactionType": "CALL",
      "contractName": "Bloom",
      "contractAddress": "0xc4e523b7d26186ec7f1dcbed8a64dabde795c98e",
      "function": "transfer(address,uint256)",
      "arguments": [
        "0x91FF08D659A2bF96dF7F7b5e290677a133Ed81B5",
        "20000000000000000000000"
      ],
      "transaction": {
        "from": "0xec2b1547294a4dd62c0ae651aeb01493f8e4cd74",
        "to": "0xc4e523b7d26186ec7f1dcbed8a64dabde795c98e",
        "gas": "0x114d5",
        "value": "0x0",
        "input": "0xa9059cbb00000000000000000000000091ff08d659a2bf96df7f7b5e290677a133ed81b500000000000000000000000000000000000000000000043c33c1937564800000",
        "nonce": "0x183",
        "chainId": "0xaa36a7"
      },
      "additionalContracts": [],
      "isFixedGasLimit": false
    },
    {
      "hash": "0xfe8655444c4c7aeae109d37a5bc43ba8ecd9c2d5cdc2a6b26c1e54a4bd177ecb",
      "transactionType": "CALL",
      "contractName": null,
      "contractAddress": "0x4be1d42471e6d6a078a28cf4f530a2f564100419",
      "function": null,
      "arguments": null,
      "transaction": {
        "from": "0xec2b1547294a4dd62c0ae651aeb01493f8e4cd74",
        "to": "0x4be1d42471e6d6a078a28cf4f530a2f564100419",
        "gas": "0x714d",
        "value": "0x38d7ea4c68000",
        "input": "0x",
        "nonce": "0x184",
        "chainId": "0xaa36a7"
      },
      "additionalContracts": [],
      "isFixedGasLimit": false
    },
    {
      "hash": "0x6b69f7244f6fa1a1b197483972444a59f7e0a55502f9e39e2458f92d76688fc8",
      "transactionType": "CALL",
      "contractName": "Bloom",
      "contractAddress": "0xc4e523b7d26186ec7f1dcbed8a64dabde795c98e",
      "function": "transfer(address,uint256)",
      "arguments": [
        "0x4bE1d42471E6D6a078A28cf4f530A2F564100419",
        "20000000000000000000000"
      ],
      "transaction": {
        "from": "0xec2b1547294a4dd62c0ae651aeb01493f8e4cd74",
        "to": "0xc4e523b7d26186ec7f1dcbed8a64dabde795c98e",
        "gas": "0xc36e",
        "value": "0x0",
        "input": "0xa9059cbb0000000000000000000000004be1d42471e6d6a078a28cf4f530a2f56410041900000000000000000000000000000000000000000000043c33c1937564800000",
        "nonce": "0x185",
        "chainId": "0xaa36a7"
      },
      "additionalContracts": [],
      "isFixedGasLimit": false
    },
    {
      "hash": "0x75f06e5965260009135982fd3ca4d20b1e02dd6afb8cc51f975a8d8ba3e7c796",
      "transactionType": "CALL",
      "contractName": null,
      "contractAddress": "0x5709666308b6d4a7129acc66d2237bee65083097",
      "function": null,
      "arguments": null,
      "transaction": {
        "from": "0xec2b1547294a4dd62c0ae651aeb01493f8e4cd74",
        "to": "0x5709666308b6d4a7129acc66d2237bee65083097",
        "gas": "0x714d",
        "value": "0x38d7ea4c68000",
        "input": "0x",
        "nonce": "0x186",
        "chainId": "0xaa36a7"
      },
      "additionalContracts": [],
      "isFixedGasLimit": false
    },
    {
      "hash": "0x1cfdfe2c134cabd340623d01bebdf5d555cca4e4788a6a25cf97bebf0c5db70a",
      "transactionType": "CALL",
      "contractName": "Bloom",
      "contractAddress": "0xc4e523b7d26186ec7f1dcbed8a64dabde795c98e",
      "function": "transfer(address,uint256)",
      "arguments": [
        "0x5709666308b6d4a7129aCc66d2237beE65083097",
        "20000000000000000000000"
      ],
      "transaction": {
        "from": "0xec2b1547294a4dd62c0ae651aeb01493f8e4cd74",
        "to": "0xc4e523b7d26186ec7f1dcbed8a64dabde795c98e",
        "gas": "0x114d5",
        "value": "0x0",
        "input": "0xa9059cbb0000000000000000000000005709666308b6d4a7129acc66d2237bee6508309700000000000000000000000000000000000000000000043c33c1937564800000",
        "nonce": "0x187",
        "chainId": "0xaa36a7"
      },
      "additionalContracts": [],
      "isFixedGasLimit": false
    },
    {
      "hash": "0xfa90bb325fbb775c1299538031de17725e91d54dcf594e70a6a2d31587a235f6",
      "transactionType": "CALL",
      "contractName": null,
      "contractAddress": "0x38ef052f7cf9c84940e6ca0e3b98411e0c15ee0a",
      "function": null,
      "arguments": null,
      "transaction": {
        "from": "0xec2b1547294a4dd62c0ae651aeb01493f8e4cd74",
        "to": "0x38ef052f7cf9c84940e6ca0e3b98411e0c15ee0a",
        "gas": "0x714d",
        "value": "0x38d7ea4c68000",
        "input": "0x",
        "nonce": "0x188",
        "chainId": "0xaa36a7"
      },
      "additionalContracts": [],
      "isFixedGasLimit": false
    },
    {
      "hash": "0xed66d6eedae1f6655741a372d707d34ce86df7b3a7b451aef434761acc340a0d",
      "transactionType": "CALL",
      "contractName": "Bloom",
      "contractAddress": "0xc4e523b7d26186ec7f1dcbed8a64dabde795c98e",
      "function": "transfer(address,uint256)",
      "arguments": [
        "0x38eF052F7cf9c84940E6ca0e3b98411e0c15Ee0a",
        "20000000000000000000000"
      ],
      "transaction": {
        "from": "0xec2b1547294a4dd62c0ae651aeb01493f8e4cd74",
        "to": "0xc4e523b7d26186ec7f1dcbed8a64dabde795c98e",
        "gas": "0x114d5",
        "value": "0x0",
        "input": "0xa9059cbb00000000000000000000000038ef052f7cf9c84940e6ca0e3b98411e0c15ee0a00000000000000000000000000000000000000000000043c33c1937564800000",
        "nonce": "0x189",
        "chainId": "0xaa36a7"
      },
      "additionalContracts": [],
      "isFixedGasLimit": false
    },
    {
      "hash": "0x82f25bfa940fef1549e2865cfcd5cc85831491cfa55871b86493e4ee62e06628",
      "transactionType": "CALL",
      "contractName": null,
      "contractAddress": "0x8ea11de1130aa63ad0cd553b580fe0ca16c6fe06",
      "function": null,
      "arguments": null,
      "transaction": {
        "from": "0xec2b1547294a4dd62c0ae651aeb01493f8e4cd74",
        "to": "0x8ea11de1130aa63ad0cd553b580fe0ca16c6fe06",
        "gas": "0x714d",
        "value": "0x38d7ea4c68000",
        "input": "0x",
        "nonce": "0x18a",
        "chainId": "0xaa36a7"
      },
      "additionalContracts": [],
      "isFixedGasLimit": false
    },
    {
      "hash": "0x98d5010ba428f806696bf77b32f1f6bdcc6d4d753c43d0e31d5cb066692f83d8",
      "transactionType": "CALL",
      "contractName": "Bloom",
      "contractAddress": "0xc4e523b7d26186ec7f1dcbed8a64dabde795c98e",
      "function": "transfer(address,uint256)",
      "arguments": [
        "0x8EA11de1130aA63aD0CD553B580fe0ca16C6fE06",
        "20000000000000000000000"
      ],
      "transaction": {
        "from": "0xec2b1547294a4dd62c0ae651aeb01493f8e4cd74",
        "to": "0xc4e523b7d26186ec7f1dcbed8a64dabde795c98e",
        "gas": "0x114d5",
        "value": "0x0",
        "input": "0xa9059cbb0000000000000000000000008ea11de1130aa63ad0cd553b580fe0ca16c6fe0600000000000000000000000000000000000000000000043c33c1937564800000",
        "nonce": "0x18b",
        "chainId": "0xaa36a7"
      },
      "additionalContracts": [],
      "isFixedGasLimit": false
    },
    {
      "hash": "0xab220293d500da0d8ade485e01f13491c399e534930af50f49330f7d4995f209",
      "transactionType": "CALL",
      "contractName": null,
      "contractAddress": "0x1d011983f10e491662dd1ea8af0d6d6213b76a85",
      "function": null,
      "arguments": null,
      "transaction": {
        "from": "0xec2b1547294a4dd62c0ae651aeb01493f8e4cd74",
        "to": "0x1d011983f10e491662dd1ea8af0d6d6213b76a85",
        "gas": "0x714d",
        "value": "0x38d7ea4c68000",
        "input": "0x",
        "nonce": "0x18c",
        "chainId": "0xaa36a7"
      },
      "additionalContracts": [],
      "isFixedGasLimit": false
    },
    {
      "hash": "0xf8d76af1c9a1c999d5b1765084071ef846be384c17badfb2d8fb49e0a738f07d",
      "transactionType": "CALL",
      "contractName": "Bloom",
      "contractAddress": "0xc4e523b7d26186ec7f1dcbed8a64dabde795c98e",
      "function": "transfer(address,uint256)",
      "arguments": [
        "0x1d011983F10E491662dd1eA8Af0D6d6213B76A85",
        "20000000000000000000000"
      ],
      "transaction": {
        "from": "0xec2b1547294a4dd62c0ae651aeb01493f8e4cd74",
        "to": "0xc4e523b7d26186ec7f1dcbed8a64dabde795c98e",
        "gas": "0x114d5",
        "value": "0x0",
        "input": "0xa9059cbb0000000000000000000000001d011983f10e491662dd1ea8af0d6d6213b76a8500000000000000000000000000000000000000000000043c33c1937564800000",
        "nonce": "0x18d",
        "chainId": "0xaa36a7"
      },
      "additionalContracts": [],
      "isFixedGasLimit": false
    },
    {
      "hash": "0x288c35a4f363707bef6571875c92876c376aa336e435b79618a775463bdfe82a",
      "transactionType": "CALL",
      "contractName": null,
      "contractAddress": "0x1d011983f10e491662dd1ea8af0d6d6213b76a85",
      "function": null,
      "arguments": null,
      "transaction": {
        "from": "0xec2b1547294a4dd62c0ae651aeb01493f8e4cd74",
        "to": "0x1d011983f10e491662dd1ea8af0d6d6213b76a85",
        "gas": "0x714d",
        "value": "0x38d7ea4c68000",
        "input": "0x",
        "nonce": "0x18e",
        "chainId": "0xaa36a7"
      },
      "additionalContracts": [],
      "isFixedGasLimit": false
    },
    {
      "hash": "0x4d1261b62854ec4623517e454949afc7d8b90f64ba7a843b28384f04a20d2f8f",
      "transactionType": "CALL",
      "contractName": "Bloom",
      "contractAddress": "0xc4e523b7d26186ec7f1dcbed8a64dabde795c98e",
      "function": "transfer(address,uint256)",
      "arguments": [
        "0x1d011983F10E491662dd1eA8Af0D6d6213B76A85",
        "20000000000000000000000"
      ],
      "transaction": {
        "from": "0xec2b1547294a4dd62c0ae651aeb01493f8e4cd74",
        "to": "0xc4e523b7d26186ec7f1dcbed8a64dabde795c98e",
        "gas": "0xc36e",
        "value": "0x0",
        "input": "0xa9059cbb0000000000000000000000001d011983f10e491662dd1ea8af0d6d6213b76a8500000000000000000000000000000000000000000000043c33c1937564800000",
        "nonce": "0x18f",
        "chainId": "0xaa36a7"
      },
      "additionalContracts": [],
      "isFixedGasLimit": false
    }
  ],
  "receipts": [
    {
      "status": "0x1",
      "cumulativeGasUsed": "0xb88e3f",
      "logs": [
        {
          "address": "0xc4e523b7d26186ec7f1dcbed8a64dabde795c98e",
          "topics": [
            "0xddf252ad1be2c89b69c2b068fc378daa952ba7f163c4a11628f55a4df523b3ef",
            "0x0000000000000000000000000000000000000000000000000000000000000000",
            "0x000000000000000000000000ec2b1547294a4dd62c0ae651aeb01493f8e4cd74"
          ],
          "data": "0x0000000000000000000000000000000000000000000422ca8b0a00a425000000",
          "blockHash": "0x3b99c503c470437cc12c1a1db41b47afefd94fd6e70492ff85a8563524a180e6",
          "blockNumber": "0x8de0ee",
          "blockTimestamp": "0x68d92610",
          "transactionHash": "0x26189b311b5584b998d76f39ecf6545c6bcd07ab499eec67950527fb41f02d10",
          "transactionIndex": "0xba",
          "logIndex": "0x9f",
          "removed": false
        }
      ],
      "logsBloom": "0x00000000000000000000000000000000000000000000000000000000000000000000000000000000000000000000000000000000000000000000000000000000000000000000000000000008000000000000000000000000000000000000000000000000020000000000000000000800000000000000000000000010000004000000000000000000000000000042000000000000000000000000000000000000000000000000000000000000000000000000000000000000000000001080000000000002000000000000000000000080000000000000000000000000000020000000000000000000000000000000000000000000000000000000000000000000",
      "type": "0x2",
      "transactionHash": "0x26189b311b5584b998d76f39ecf6545c6bcd07ab499eec67950527fb41f02d10",
      "transactionIndex": "0xba",
      "blockHash": "0x3b99c503c470437cc12c1a1db41b47afefd94fd6e70492ff85a8563524a180e6",
      "blockNumber": "0x8de0ee",
      "gasUsed": "0xc767",
      "effectiveGasPrice": "0xf424d",
      "from": "0xec2b1547294a4dd62c0ae651aeb01493f8e4cd74",
      "to": "0xc4e523b7d26186ec7f1dcbed8a64dabde795c98e",
      "contractAddress": null
    },
    {
      "status": "0x1",
      "cumulativeGasUsed": "0xb8e047",
      "logs": [],
      "logsBloom": "0x00000000000000000000000000000000000000000000000000000000000000000000000000000000000000000000000000000000000000000000000000000000000000000000000000000000000000000000000000000000000000000000000000000000000000000000000000000000000000000000000000000000000000000000000000000000000000000000000000000000000000000000000000000000000000000000000000000000000000000000000000000000000000000000000000000000000000000000000000000000000000000000000000000000000000000000000000000000000000000000000000000000000000000000000000000000",
      "type": "0x2",
      "transactionHash": "0x6d9349a6640231ae41169202f4afb1c2c6660de4a09991de98824d322272de63",
      "transactionIndex": "0xbb",
      "blockHash": "0x3b99c503c470437cc12c1a1db41b47afefd94fd6e70492ff85a8563524a180e6",
      "blockNumber": "0x8de0ee",
      "gasUsed": "0x5208",
      "effectiveGasPrice": "0xf424d",
      "from": "0xec2b1547294a4dd62c0ae651aeb01493f8e4cd74",
      "to": "0xe96fe7ad34b1a276c7cbc8ec1b0db4866976fca4",
      "contractAddress": null
    },
    {
      "status": "0x1",
      "cumulativeGasUsed": "0xb9a8b4",
      "logs": [
        {
          "address": "0xc4e523b7d26186ec7f1dcbed8a64dabde795c98e",
          "topics": [
            "0xddf252ad1be2c89b69c2b068fc378daa952ba7f163c4a11628f55a4df523b3ef",
            "0x000000000000000000000000ec2b1547294a4dd62c0ae651aeb01493f8e4cd74",
            "0x000000000000000000000000e96fe7ad34b1a276c7cbc8ec1b0db4866976fca4"
          ],
          "data": "0x00000000000000000000000000000000000000000000043c33c1937564800000",
          "blockHash": "0x3b99c503c470437cc12c1a1db41b47afefd94fd6e70492ff85a8563524a180e6",
          "blockNumber": "0x8de0ee",
          "blockTimestamp": "0x68d92610",
          "transactionHash": "0x357215372960dfe2cd4ac9871ad3057a4247afe378c55cd2a8b10845d3c26e81",
          "transactionIndex": "0xbc",
          "logIndex": "0xa0",
          "removed": false
        }
      ],
      "logsBloom": "0x00000000000000000000000000000000000000000000000000000000000000000000000000000200000000000000000000000000000000200000000000000000000000000000000000000008000000000000000000000000000000000000000000000000000000000000000000000000000000000000000000000010000004000000000000000000000000000042000000000000000000100000000000000000000000000000000000000000000000000000000000000000000000001080000000000002000000000000000000000080000000000000000000000000000000000000000000000000000000000000000000000000000000000000000000000000",
      "type": "0x2",
      "transactionHash": "0x357215372960dfe2cd4ac9871ad3057a4247afe378c55cd2a8b10845d3c26e81",
      "transactionIndex": "0xbc",
      "blockHash": "0x3b99c503c470437cc12c1a1db41b47afefd94fd6e70492ff85a8563524a180e6",
      "blockNumber": "0x8de0ee",
      "gasUsed": "0xc86d",
      "effectiveGasPrice": "0xf424d",
      "from": "0xec2b1547294a4dd62c0ae651aeb01493f8e4cd74",
      "to": "0xc4e523b7d26186ec7f1dcbed8a64dabde795c98e",
      "contractAddress": null
    },
    {
      "status": "0x1",
      "cumulativeGasUsed": "0xb9fabc",
      "logs": [],
      "logsBloom": "0x00000000000000000000000000000000000000000000000000000000000000000000000000000000000000000000000000000000000000000000000000000000000000000000000000000000000000000000000000000000000000000000000000000000000000000000000000000000000000000000000000000000000000000000000000000000000000000000000000000000000000000000000000000000000000000000000000000000000000000000000000000000000000000000000000000000000000000000000000000000000000000000000000000000000000000000000000000000000000000000000000000000000000000000000000000000",
      "type": "0x2",
      "transactionHash": "0x858a186e084012935237298e73352666634706ce46d02e407a83f73070f6ad32",
      "transactionIndex": "0xbd",
      "blockHash": "0x3b99c503c470437cc12c1a1db41b47afefd94fd6e70492ff85a8563524a180e6",
      "blockNumber": "0x8de0ee",
      "gasUsed": "0x5208",
      "effectiveGasPrice": "0xf424d",
      "from": "0xec2b1547294a4dd62c0ae651aeb01493f8e4cd74",
      "to": "0x6aeca04b7208d65b35aaa53061bd3d6b348fe72f",
      "contractAddress": null
    },
    {
      "status": "0x1",
      "cumulativeGasUsed": "0xbac329",
      "logs": [
        {
          "address": "0xc4e523b7d26186ec7f1dcbed8a64dabde795c98e",
          "topics": [
            "0xddf252ad1be2c89b69c2b068fc378daa952ba7f163c4a11628f55a4df523b3ef",
            "0x000000000000000000000000ec2b1547294a4dd62c0ae651aeb01493f8e4cd74",
            "0x0000000000000000000000006aeca04b7208d65b35aaa53061bd3d6b348fe72f"
          ],
          "data": "0x00000000000000000000000000000000000000000000043c33c1937564800000",
          "blockHash": "0x3b99c503c470437cc12c1a1db41b47afefd94fd6e70492ff85a8563524a180e6",
          "blockNumber": "0x8de0ee",
          "blockTimestamp": "0x68d92610",
          "transactionHash": "0x3674ae861aa986b86960c8b907682ed435abcfca8eb0e7ed489bb5887c85f8e4",
          "transactionIndex": "0xbe",
          "logIndex": "0xa1",
          "removed": false
        }
      ],
      "logsBloom": "0x00000000000000000000000000000000000000000000000000000000000000000000000000000000000000000000000000000000000000000000000000000000000000000000000000000008000000000000000000000000000000000000000000000000000000000000000000000000000000000000000000000010000004000000000000000000000000000046000000000000000000000000000000000000000000000000010000000000000000000000000000000000000000001080000000000002000000000000000000000080000000000000000000008000000000000000000000000000000000000000000000000000000000000000000000000000",
      "type": "0x2",
      "transactionHash": "0x3674ae861aa986b86960c8b907682ed435abcfca8eb0e7ed489bb5887c85f8e4",
      "transactionIndex": "0xbe",
      "blockHash": "0x3b99c503c470437cc12c1a1db41b47afefd94fd6e70492ff85a8563524a180e6",
      "blockNumber": "0x8de0ee",
      "gasUsed": "0xc86d",
      "effectiveGasPrice": "0xf424d",
      "from": "0xec2b1547294a4dd62c0ae651aeb01493f8e4cd74",
      "to": "0xc4e523b7d26186ec7f1dcbed8a64dabde795c98e",
      "contractAddress": null
    },
    {
      "status": "0x1",
      "cumulativeGasUsed": "0xbb1531",
      "logs": [],
      "logsBloom": "0x00000000000000000000000000000000000000000000000000000000000000000000000000000000000000000000000000000000000000000000000000000000000000000000000000000000000000000000000000000000000000000000000000000000000000000000000000000000000000000000000000000000000000000000000000000000000000000000000000000000000000000000000000000000000000000000000000000000000000000000000000000000000000000000000000000000000000000000000000000000000000000000000000000000000000000000000000000000000000000000000000000000000000000000000000000000",
      "type": "0x2",
      "transactionHash": "0x46706e2a080915dd7d8442e5c04a8762811e22b16dd2c65f7dd7446517436c05",
      "transactionIndex": "0xbf",
      "blockHash": "0x3b99c503c470437cc12c1a1db41b47afefd94fd6e70492ff85a8563524a180e6",
      "blockNumber": "0x8de0ee",
      "gasUsed": "0x5208",
      "effectiveGasPrice": "0xf424d",
      "from": "0xec2b1547294a4dd62c0ae651aeb01493f8e4cd74",
      "to": "0x77d5f1995b2ef0bf3dff06bbb1943f54c644ae7f",
      "contractAddress": null
    },
    {
      "status": "0x1",
      "cumulativeGasUsed": "0xbbdd9e",
      "logs": [
        {
          "address": "0xc4e523b7d26186ec7f1dcbed8a64dabde795c98e",
          "topics": [
            "0xddf252ad1be2c89b69c2b068fc378daa952ba7f163c4a11628f55a4df523b3ef",
            "0x000000000000000000000000ec2b1547294a4dd62c0ae651aeb01493f8e4cd74",
            "0x00000000000000000000000077d5f1995b2ef0bf3dff06bbb1943f54c644ae7f"
          ],
          "data": "0x00000000000000000000000000000000000000000000043c33c1937564800000",
          "blockHash": "0x3b99c503c470437cc12c1a1db41b47afefd94fd6e70492ff85a8563524a180e6",
          "blockNumber": "0x8de0ee",
          "blockTimestamp": "0x68d92610",
          "transactionHash": "0xf3a7b9c11b92999ebc20d207b60b75ff591acc790820b09fbc51dfbd096d5ae7",
          "transactionIndex": "0xc0",
          "logIndex": "0xa2",
          "removed": false
        }
      ],
      "logsBloom": "0x00000000000000000002000000000000000000000000000000000000000000000000000000000000000000000000000000000000000000000000000000000000000000000000000000000008000000000000000000000000000000000000000000000000000000000000000000000000000000000000000000000010000004000000000000000000000000000042000000000000000000000000000000000000000000000000000000000000000000000000000000000000000000001080000000000002000400000000000000000080000000000000000000000000000000000000000000000000000000000000000000000000000000000000000000000000",
      "type": "0x2",
      "transactionHash": "0xf3a7b9c11b92999ebc20d207b60b75ff591acc790820b09fbc51dfbd096d5ae7",
      "transactionIndex": "0xc0",
      "blockHash": "0x3b99c503c470437cc12c1a1db41b47afefd94fd6e70492ff85a8563524a180e6",
      "blockNumber": "0x8de0ee",
      "gasUsed": "0xc86d",
      "effectiveGasPrice": "0xf424d",
      "from": "0xec2b1547294a4dd62c0ae651aeb01493f8e4cd74",
      "to": "0xc4e523b7d26186ec7f1dcbed8a64dabde795c98e",
      "contractAddress": null
    },
    {
      "status": "0x1",
      "cumulativeGasUsed": "0xbc99a9",
      "logs": [],
      "logsBloom": "0x00000000000000000000000000000000000000000000000000000000000000000000000000000000000000000000000000000000000000000000000000000000000000000000000000000000000000000000000000000000000000000000000000000000000000000000000000000000000000000000000000000000000000000000000000000000000000000000000000000000000000000000000000000000000000000000000000000000000000000000000000000000000000000000000000000000000000000000000000000000000000000000000000000000000000000000000000000000000000000000000000000000000000000000000000000000",
      "type": "0x2",
      "transactionHash": "0x88f0fda78d3f9c488f3523991b53589b692fbcefcfc2463555833d22fc9044f2",
      "transactionIndex": "0xc2",
      "blockHash": "0x3b99c503c470437cc12c1a1db41b47afefd94fd6e70492ff85a8563524a180e6",
      "blockNumber": "0x8de0ee",
      "gasUsed": "0x5208",
      "effectiveGasPrice": "0xf424d",
      "from": "0xec2b1547294a4dd62c0ae651aeb01493f8e4cd74",
      "to": "0x91ff08d659a2bf96df7f7b5e290677a133ed81b5",
      "contractAddress": null
    },
    {
      "status": "0x1",
      "cumulativeGasUsed": "0xbd6216",
      "logs": [
        {
          "address": "0xc4e523b7d26186ec7f1dcbed8a64dabde795c98e",
          "topics": [
            "0xddf252ad1be2c89b69c2b068fc378daa952ba7f163c4a11628f55a4df523b3ef",
            "0x000000000000000000000000ec2b1547294a4dd62c0ae651aeb01493f8e4cd74",
            "0x00000000000000000000000091ff08d659a2bf96df7f7b5e290677a133ed81b5"
          ],
          "data": "0x00000000000000000000000000000000000000000000043c33c1937564800000",
          "blockHash": "0x3b99c503c470437cc12c1a1db41b47afefd94fd6e70492ff85a8563524a180e6",
          "blockNumber": "0x8de0ee",
          "blockTimestamp": "0x68d92610",
          "transactionHash": "0xee2ef94ae617a22b9a3ed92a8e47f2393534d403df7d68d6ee6ca3bf17c053d7",
          "transactionIndex": "0xc3",
          "logIndex": "0xa4",
          "removed": false
        }
      ],
      "logsBloom": "0x00000000000000000000000000000000000000000000000000000000008000000000000000000000000000000000000000000000000000000000000000000000000000000000000000000008000000000000000000020000000000000000000000000000000000000000000000040000000000000000000000000010000004000000000000000000000000000042000000000000000000000000000000000000000000000000000000000000000000000000000000000000000000001080000000000002000000000000000000000080000000000000000000000000000000000000000000000000000000000000000000000000000000000000000000000000",
      "type": "0x2",
      "transactionHash": "0xee2ef94ae617a22b9a3ed92a8e47f2393534d403df7d68d6ee6ca3bf17c053d7",
      "transactionIndex": "0xc3",
      "blockHash": "0x3b99c503c470437cc12c1a1db41b47afefd94fd6e70492ff85a8563524a180e6",
      "blockNumber": "0x8de0ee",
      "gasUsed": "0xc86d",
      "effectiveGasPrice": "0xf424d",
      "from": "0xec2b1547294a4dd62c0ae651aeb01493f8e4cd74",
      "to": "0xc4e523b7d26186ec7f1dcbed8a64dabde795c98e",
      "contractAddress": null
    },
    {
      "status": "0x1",
      "cumulativeGasUsed": "0xbdb41e",
      "logs": [],
      "logsBloom": "0x00000000000000000000000000000000000000000000000000000000000000000000000000000000000000000000000000000000000000000000000000000000000000000000000000000000000000000000000000000000000000000000000000000000000000000000000000000000000000000000000000000000000000000000000000000000000000000000000000000000000000000000000000000000000000000000000000000000000000000000000000000000000000000000000000000000000000000000000000000000000000000000000000000000000000000000000000000000000000000000000000000000000000000000000000000000",
      "type": "0x2",
      "transactionHash": "0xfe8655444c4c7aeae109d37a5bc43ba8ecd9c2d5cdc2a6b26c1e54a4bd177ecb",
      "transactionIndex": "0xc4",
      "blockHash": "0x3b99c503c470437cc12c1a1db41b47afefd94fd6e70492ff85a8563524a180e6",
      "blockNumber": "0x8de0ee",
      "gasUsed": "0x5208",
      "effectiveGasPrice": "0xf424d",
      "from": "0xec2b1547294a4dd62c0ae651aeb01493f8e4cd74",
      "to": "0x4be1d42471e6d6a078a28cf4f530a2f564100419",
      "contractAddress": null
    },
    {
      "status": "0x1",
      "cumulativeGasUsed": "0xbe39bf",
      "logs": [
        {
          "address": "0xc4e523b7d26186ec7f1dcbed8a64dabde795c98e",
          "topics": [
            "0xddf252ad1be2c89b69c2b068fc378daa952ba7f163c4a11628f55a4df523b3ef",
            "0x000000000000000000000000ec2b1547294a4dd62c0ae651aeb01493f8e4cd74",
            "0x0000000000000000000000004be1d42471e6d6a078a28cf4f530a2f564100419"
          ],
          "data": "0x00000000000000000000000000000000000000000000043c33c1937564800000",
          "blockHash": "0x3b99c503c470437cc12c1a1db41b47afefd94fd6e70492ff85a8563524a180e6",
          "blockNumber": "0x8de0ee",
          "blockTimestamp": "0x68d92610",
          "transactionHash": "0x6b69f7244f6fa1a1b197483972444a59f7e0a55502f9e39e2458f92d76688fc8",
          "transactionIndex": "0xc5",
          "logIndex": "0xa5",
          "removed": false
        }
      ],
      "logsBloom": "0x00000000000000000000000000000000000000000000000000000000000000000000000000000000000000000000000000000000000000000200000000000000000000000000000000000008000000000000000000000000000000000000000000000000000000000000000000000000000000000000000000000010000004000000000000000000000000000042000000000000000040000000000000000000000000000000000000000000000000000000000000000000000000001080000000000002000000010000000000000080000000000000000000000000000000000000000000000000000000000000000000000000000000000000000000000000",
      "type": "0x2",
      "transactionHash": "0x6b69f7244f6fa1a1b197483972444a59f7e0a55502f9e39e2458f92d76688fc8",
      "transactionIndex": "0xc5",
      "blockHash": "0x3b99c503c470437cc12c1a1db41b47afefd94fd6e70492ff85a8563524a180e6",
      "blockNumber": "0x8de0ee",
      "gasUsed": "0x85a1",
      "effectiveGasPrice": "0xf424d",
      "from": "0xec2b1547294a4dd62c0ae651aeb01493f8e4cd74",
      "to": "0xc4e523b7d26186ec7f1dcbed8a64dabde795c98e",
      "contractAddress": null
    },
    {
      "status": "0x1",
      "cumulativeGasUsed": "0xbe8bc7",
      "logs": [],
      "logsBloom": "0x00000000000000000000000000000000000000000000000000000000000000000000000000000000000000000000000000000000000000000000000000000000000000000000000000000000000000000000000000000000000000000000000000000000000000000000000000000000000000000000000000000000000000000000000000000000000000000000000000000000000000000000000000000000000000000000000000000000000000000000000000000000000000000000000000000000000000000000000000000000000000000000000000000000000000000000000000000000000000000000000000000000000000000000000000000000",
      "type": "0x2",
      "transactionHash": "0x75f06e5965260009135982fd3ca4d20b1e02dd6afb8cc51f975a8d8ba3e7c796",
      "transactionIndex": "0xc6",
      "blockHash": "0x3b99c503c470437cc12c1a1db41b47afefd94fd6e70492ff85a8563524a180e6",
      "blockNumber": "0x8de0ee",
      "gasUsed": "0x5208",
      "effectiveGasPrice": "0xf424d",
      "from": "0xec2b1547294a4dd62c0ae651aeb01493f8e4cd74",
      "to": "0x5709666308b6d4a7129acc66d2237bee65083097",
      "contractAddress": null
    },
    {
      "status": "0x1",
      "cumulativeGasUsed": "0xbf5434",
      "logs": [
        {
          "address": "0xc4e523b7d26186ec7f1dcbed8a64dabde795c98e",
          "topics": [
            "0xddf252ad1be2c89b69c2b068fc378daa952ba7f163c4a11628f55a4df523b3ef",
            "0x000000000000000000000000ec2b1547294a4dd62c0ae651aeb01493f8e4cd74",
            "0x0000000000000000000000005709666308b6d4a7129acc66d2237bee65083097"
          ],
          "data": "0x00000000000000000000000000000000000000000000043c33c1937564800000",
          "blockHash": "0x3b99c503c470437cc12c1a1db41b47afefd94fd6e70492ff85a8563524a180e6",
          "blockNumber": "0x8de0ee",
          "blockTimestamp": "0x68d92610",
          "transactionHash": "0x1cfdfe2c134cabd340623d01bebdf5d555cca4e4788a6a25cf97bebf0c5db70a",
          "transactionIndex": "0xc7",
          "logIndex": "0xa6",
          "removed": false
        }
      ],
      "logsBloom": "0x01000000000000000000000000000000000000000000000000000000000000000000000000000000000000000000000000000000000000000000000000000000000000000000000000000008000000000000000000000000000000000000000000000000000000000000000000000000000000000000000000000010000004000000000000000200000000000042000000000000000000000000000000000000000000000000000000000000000000000000000000000000000000001080000000000002000000000000000000000080000000000000000000000010000000000000000000000000000000000000000000000000000000000000000000000000",
      "type": "0x2",
      "transactionHash": "0x1cfdfe2c134cabd340623d01bebdf5d555cca4e4788a6a25cf97bebf0c5db70a",
      "transactionIndex": "0xc7",
      "blockHash": "0x3b99c503c470437cc12c1a1db41b47afefd94fd6e70492ff85a8563524a180e6",
      "blockNumber": "0x8de0ee",
      "gasUsed": "0xc86d",
      "effectiveGasPrice": "0xf424d",
      "from": "0xec2b1547294a4dd62c0ae651aeb01493f8e4cd74",
      "to": "0xc4e523b7d26186ec7f1dcbed8a64dabde795c98e",
      "contractAddress": null
    },
    {
      "status": "0x1",
      "cumulativeGasUsed": "0xbfa63c",
      "logs": [],
      "logsBloom": "0x00000000000000000000000000000000000000000000000000000000000000000000000000000000000000000000000000000000000000000000000000000000000000000000000000000000000000000000000000000000000000000000000000000000000000000000000000000000000000000000000000000000000000000000000000000000000000000000000000000000000000000000000000000000000000000000000000000000000000000000000000000000000000000000000000000000000000000000000000000000000000000000000000000000000000000000000000000000000000000000000000000000000000000000000000000000",
      "type": "0x2",
      "transactionHash": "0xfa90bb325fbb775c1299538031de17725e91d54dcf594e70a6a2d31587a235f6",
      "transactionIndex": "0xc8",
      "blockHash": "0x3b99c503c470437cc12c1a1db41b47afefd94fd6e70492ff85a8563524a180e6",
      "blockNumber": "0x8de0ee",
      "gasUsed": "0x5208",
      "effectiveGasPrice": "0xf424d",
      "from": "0xec2b1547294a4dd62c0ae651aeb01493f8e4cd74",
      "to": "0x38ef052f7cf9c84940e6ca0e3b98411e0c15ee0a",
      "contractAddress": null
    },
    {
      "status": "0x1",
      "cumulativeGasUsed": "0xc297b9",
      "logs": [
        {
          "address": "0xc4e523b7d26186ec7f1dcbed8a64dabde795c98e",
          "topics": [
            "0xddf252ad1be2c89b69c2b068fc378daa952ba7f163c4a11628f55a4df523b3ef",
            "0x000000000000000000000000ec2b1547294a4dd62c0ae651aeb01493f8e4cd74",
            "0x00000000000000000000000038ef052f7cf9c84940e6ca0e3b98411e0c15ee0a"
          ],
          "data": "0x00000000000000000000000000000000000000000000043c33c1937564800000",
          "blockHash": "0x3b99c503c470437cc12c1a1db41b47afefd94fd6e70492ff85a8563524a180e6",
          "blockNumber": "0x8de0ee",
          "blockTimestamp": "0x68d92610",
          "transactionHash": "0xed66d6eedae1f6655741a372d707d34ce86df7b3a7b451aef434761acc340a0d",
          "transactionIndex": "0xcc",
          "logIndex": "0xaa",
          "removed": false
        }
      ],
      "logsBloom": "0x00000000000000000000000000000000000000000000000000000000000000000000000000000000000000000040000000010000000040000000000000000000000000000000000000000008000000000000000000000000000000000000000000000000000000000000000000000000000000000000000000000010000004000000000000000000000000000042000000000000000000000000000000000000000000000000000000000000000000000000000000000000000000001080000000000002000000000000000000000080000000000000000000000000000000000000000000000000000000000000000000000000000000000000000000000000",
      "type": "0x2",
      "transactionHash": "0xed66d6eedae1f6655741a372d707d34ce86df7b3a7b451aef434761acc340a0d",
      "transactionIndex": "0xcc",
      "blockHash": "0x3b99c503c470437cc12c1a1db41b47afefd94fd6e70492ff85a8563524a180e6",
      "blockNumber": "0x8de0ee",
      "gasUsed": "0xc86d",
      "effectiveGasPrice": "0xf424d",
      "from": "0xec2b1547294a4dd62c0ae651aeb01493f8e4cd74",
      "to": "0xc4e523b7d26186ec7f1dcbed8a64dabde795c98e",
      "contractAddress": null
    },
    {
      "status": "0x1",
      "cumulativeGasUsed": "0xc2e9c1",
      "logs": [],
      "logsBloom": "0x00000000000000000000000000000000000000000000000000000000000000000000000000000000000000000000000000000000000000000000000000000000000000000000000000000000000000000000000000000000000000000000000000000000000000000000000000000000000000000000000000000000000000000000000000000000000000000000000000000000000000000000000000000000000000000000000000000000000000000000000000000000000000000000000000000000000000000000000000000000000000000000000000000000000000000000000000000000000000000000000000000000000000000000000000000000",
      "type": "0x2",
      "transactionHash": "0x82f25bfa940fef1549e2865cfcd5cc85831491cfa55871b86493e4ee62e06628",
      "transactionIndex": "0xcd",
      "blockHash": "0x3b99c503c470437cc12c1a1db41b47afefd94fd6e70492ff85a8563524a180e6",
      "blockNumber": "0x8de0ee",
      "gasUsed": "0x5208",
      "effectiveGasPrice": "0xf424d",
      "from": "0xec2b1547294a4dd62c0ae651aeb01493f8e4cd74",
      "to": "0x8ea11de1130aa63ad0cd553b580fe0ca16c6fe06",
      "contractAddress": null
    },
    {
      "status": "0x1",
      "cumulativeGasUsed": "0xc3b22e",
      "logs": [
        {
          "address": "0xc4e523b7d26186ec7f1dcbed8a64dabde795c98e",
          "topics": [
            "0xddf252ad1be2c89b69c2b068fc378daa952ba7f163c4a11628f55a4df523b3ef",
            "0x000000000000000000000000ec2b1547294a4dd62c0ae651aeb01493f8e4cd74",
            "0x0000000000000000000000008ea11de1130aa63ad0cd553b580fe0ca16c6fe06"
          ],
          "data": "0x00000000000000000000000000000000000000000000043c33c1937564800000",
          "blockHash": "0x3b99c503c470437cc12c1a1db41b47afefd94fd6e70492ff85a8563524a180e6",
          "blockNumber": "0x8de0ee",
          "blockTimestamp": "0x68d92610",
          "transactionHash": "0x98d5010ba428f806696bf77b32f1f6bdcc6d4d753c43d0e31d5cb066692f83d8",
          "transactionIndex": "0xce",
          "logIndex": "0xab",
          "removed": false
        }
      ],
      "logsBloom": "0x00000000000000100000000000000000000000000000000000000000000000000000000000000000000000000000000000000000000000000000000000000000000000000000000000000008000000000000000000000000000000000000000000000000000000000000000000000000000000000000000000000010000004000000000000000000000000000042000000000000000000000000000000000000000000000000000000000000000000000000000000000000000000001080000010000002000000000000000000000080000000000000000000000000000000040000000000000000000000000000000000000000000000000000000000000000",
      "type": "0x2",
      "transactionHash": "0x98d5010ba428f806696bf77b32f1f6bdcc6d4d753c43d0e31d5cb066692f83d8",
      "transactionIndex": "0xce",
      "blockHash": "0x3b99c503c470437cc12c1a1db41b47afefd94fd6e70492ff85a8563524a180e6",
      "blockNumber": "0x8de0ee",
      "gasUsed": "0xc86d",
      "effectiveGasPrice": "0xf424d",
      "from": "0xec2b1547294a4dd62c0ae651aeb01493f8e4cd74",
      "to": "0xc4e523b7d26186ec7f1dcbed8a64dabde795c98e",
      "contractAddress": null
    },
    {
      "status": "0x1",
      "cumulativeGasUsed": "0xc40436",
      "logs": [],
      "logsBloom": "0x00000000000000000000000000000000000000000000000000000000000000000000000000000000000000000000000000000000000000000000000000000000000000000000000000000000000000000000000000000000000000000000000000000000000000000000000000000000000000000000000000000000000000000000000000000000000000000000000000000000000000000000000000000000000000000000000000000000000000000000000000000000000000000000000000000000000000000000000000000000000000000000000000000000000000000000000000000000000000000000000000000000000000000000000000000000",
      "type": "0x2",
      "transactionHash": "0xab220293d500da0d8ade485e01f13491c399e534930af50f49330f7d4995f209",
      "transactionIndex": "0xcf",
      "blockHash": "0x3b99c503c470437cc12c1a1db41b47afefd94fd6e70492ff85a8563524a180e6",
      "blockNumber": "0x8de0ee",
      "gasUsed": "0x5208",
      "effectiveGasPrice": "0xf424d",
      "from": "0xec2b1547294a4dd62c0ae651aeb01493f8e4cd74",
      "to": "0x1d011983f10e491662dd1ea8af0d6d6213b76a85",
      "contractAddress": null
    },
    {
      "status": "0x1",
      "cumulativeGasUsed": "0xc8e9be",
      "logs": [
        {
          "address": "0xc4e523b7d26186ec7f1dcbed8a64dabde795c98e",
          "topics": [
            "0xddf252ad1be2c89b69c2b068fc378daa952ba7f163c4a11628f55a4df523b3ef",
            "0x000000000000000000000000ec2b1547294a4dd62c0ae651aeb01493f8e4cd74",
            "0x0000000000000000000000001d011983f10e491662dd1ea8af0d6d6213b76a85"
          ],
          "data": "0x00000000000000000000000000000000000000000000043c33c1937564800000",
          "blockHash": "0x7df561cdb1a44a785f559a142f90325c4ecb966186bdbadebc5bee265159d7b2",
          "blockNumber": "0x8de0ef",
          "blockTimestamp": "0x68d9261c",
          "transactionHash": "0xf8d76af1c9a1c999d5b1765084071ef846be384c17badfb2d8fb49e0a738f07d",
          "transactionIndex": "0x3c",
          "logIndex": "0x98",
          "removed": false
        }
      ],
      "logsBloom": "0x00000000000000000000000000000000000000000000000000000000000000000000000000000000000000000000000000000000000000000000000000000000000000000000000000000008000000000000000100000000000000000000000000000000000000000000000000000000000000000000000000000010000004000000000000000020000000000042000000000000000000000000000000000000000000000000000000000000000000000000000000000000000000001080000000000002000000000000000000000080000000000000000000000000000000000000000000000000000000000000000000000000000000000000000010000000",
      "type": "0x2",
      "transactionHash": "0xf8d76af1c9a1c999d5b1765084071ef846be384c17badfb2d8fb49e0a738f07d",
      "transactionIndex": "0x3c",
      "blockHash": "0x7df561cdb1a44a785f559a142f90325c4ecb966186bdbadebc5bee265159d7b2",
      "blockNumber": "0x8de0ef",
      "gasUsed": "0xc86d",
      "effectiveGasPrice": "0xf424d",
      "from": "0xec2b1547294a4dd62c0ae651aeb01493f8e4cd74",
      "to": "0xc4e523b7d26186ec7f1dcbed8a64dabde795c98e",
      "contractAddress": null
    },
    {
      "status": "0x1",
      "cumulativeGasUsed": "0xc93bc6",
      "logs": [],
      "logsBloom": "0x00000000000000000000000000000000000000000000000000000000000000000000000000000000000000000000000000000000000000000000000000000000000000000000000000000000000000000000000000000000000000000000000000000000000000000000000000000000000000000000000000000000000000000000000000000000000000000000000000000000000000000000000000000000000000000000000000000000000000000000000000000000000000000000000000000000000000000000000000000000000000000000000000000000000000000000000000000000000000000000000000000000000000000000000000000000",
      "type": "0x2",
      "transactionHash": "0x288c35a4f363707bef6571875c92876c376aa336e435b79618a775463bdfe82a",
      "transactionIndex": "0x3d",
      "blockHash": "0x7df561cdb1a44a785f559a142f90325c4ecb966186bdbadebc5bee265159d7b2",
      "blockNumber": "0x8de0ef",
      "gasUsed": "0x5208",
      "effectiveGasPrice": "0xf424d",
      "from": "0xec2b1547294a4dd62c0ae651aeb01493f8e4cd74",
      "to": "0x1d011983f10e491662dd1ea8af0d6d6213b76a85",
      "contractAddress": null
    },
    {
      "status": "0x1",
      "cumulativeGasUsed": "0xc9c167",
      "logs": [
        {
          "address": "0xc4e523b7d26186ec7f1dcbed8a64dabde795c98e",
          "topics": [
            "0xddf252ad1be2c89b69c2b068fc378daa952ba7f163c4a11628f55a4df523b3ef",
            "0x000000000000000000000000ec2b1547294a4dd62c0ae651aeb01493f8e4cd74",
            "0x0000000000000000000000001d011983f10e491662dd1ea8af0d6d6213b76a85"
          ],
          "data": "0x00000000000000000000000000000000000000000000043c33c1937564800000",
          "blockHash": "0x7df561cdb1a44a785f559a142f90325c4ecb966186bdbadebc5bee265159d7b2",
          "blockNumber": "0x8de0ef",
          "blockTimestamp": "0x68d9261c",
          "transactionHash": "0x4d1261b62854ec4623517e454949afc7d8b90f64ba7a843b28384f04a20d2f8f",
          "transactionIndex": "0x3e",
          "logIndex": "0x99",
          "removed": false
        }
      ],
      "logsBloom": "0x00000000000000000000000000000000000000000000000000000000000000000000000000000000000000000000000000000000000000000000000000000000000000000000000000000008000000000000000100000000000000000000000000000000000000000000000000000000000000000000000000000010000004000000000000000020000000000042000000000000000000000000000000000000000000000000000000000000000000000000000000000000000000001080000000000002000000000000000000000080000000000000000000000000000000000000000000000000000000000000000000000000000000000000000010000000",
      "type": "0x2",
      "transactionHash": "0x4d1261b62854ec4623517e454949afc7d8b90f64ba7a843b28384f04a20d2f8f",
      "transactionIndex": "0x3e",
      "blockHash": "0x7df561cdb1a44a785f559a142f90325c4ecb966186bdbadebc5bee265159d7b2",
      "blockNumber": "0x8de0ef",
      "gasUsed": "0x85a1",
      "effectiveGasPrice": "0xf424d",
      "from": "0xec2b1547294a4dd62c0ae651aeb01493f8e4cd74",
      "to": "0xc4e523b7d26186ec7f1dcbed8a64dabde795c98e",
      "contractAddress": null
    }
  ],
  "libraries": [],
  "pending": [],
  "returns": {},
  "timestamp": 1759061531100,
  "chain": 11155111,
  "commit": "44cef56"
}