{
  "transactions": [
    {
      "hash": "0x1d6dd346f217dc86d490a74b4f5f45b3a65ca6c920aaeb4fab7e6b8245013080",
      "transactionType": "CALL",
      "contractName": null,
      "contractAddress": "0xc3235b99bdf0f12e793bca9b83a8bad88e06c8b3",
      "function": null,
      "arguments": null,
      "transaction": {
        "from": "0xec2b1547294a4dd62c0ae651aeb01493f8e4cd74",
        "to": "0xc3235b99bdf0f12e793bca9b83a8bad88e06c8b3",
        "gas": "0x714d",
        "value": "0x38d7ea4c68000",
        "input": "0x",
        "nonce": "0x190",
        "chainId": "0xaa36a7"
      },
      "additionalContracts": [],
      "isFixedGasLimit": false
    },
    {
      "hash": "0xa6ced07a765fd9537f7188e730d37f07b76761a5e71d0856faab985f3bee4efb",
      "transactionType": "CALL",
      "contractName": "Bloom",
      "contractAddress": "0xc4e523b7d26186ec7f1dcbed8a64dabde795c98e",
      "function": "transfer(address,uint256)",
      "arguments": [
        "0xc3235B99Bdf0F12e793BcA9B83A8BAD88E06C8B3",
        "20000000000000000000000"
      ],
      "transaction": {
        "from": "0xec2b1547294a4dd62c0ae651aeb01493f8e4cd74",
        "to": "0xc4e523b7d26186ec7f1dcbed8a64dabde795c98e",
        "gas": "0x114d5",
        "value": "0x0",
        "input": "0xa9059cbb000000000000000000000000c3235b99bdf0f12e793bca9b83a8bad88e06c8b300000000000000000000000000000000000000000000043c33c1937564800000",
        "nonce": "0x191",
        "chainId": "0xaa36a7"
      },
      "additionalContracts": [],
      "isFixedGasLimit": false
    }
  ],
  "receipts": [
    {
      "status": "0x1",
      "cumulativeGasUsed": "0x193b980",
      "logs": [],
      "logsBloom": "0x00000000000000000000000000000000000000000000000000000000000000000000000000000000000000000000000000000000000000000000000000000000000000000000000000000000000000000000000000000000000000000000000000000000000000000000000000000000000000000000000000000000000000000000000000000000000000000000000000000000000000000000000000000000000000000000000000000000000000000000000000000000000000000000000000000000000000000000000000000000000000000000000000000000000000000000000000000000000000000000000000000000000000000000000000000000",
      "type": "0x2",
      "transactionHash": "0x1d6dd346f217dc86d490a74b4f5f45b3a65ca6c920aaeb4fab7e6b8245013080",
      "transactionIndex": "0xde",
      "blockHash": "0x4052d154ea2cfd22fb39570ae51f7406c83227b1aafcf09e7d82a6fcdfb07df2",
      "blockNumber": "0x8de127",
      "gasUsed": "0x5208",
      "effectiveGasPrice": "0xf424b",
      "from": "0xec2b1547294a4dd62c0ae651aeb01493f8e4cd74",
      "to": "0xc3235b99bdf0f12e793bca9b83a8bad88e06c8b3",
      "contractAddress": null
    },
    {
      "status": "0x1",
      "cumulativeGasUsed": "0x19481ed",
      "logs": [
        {
          "address": "0xc4e523b7d26186ec7f1dcbed8a64dabde795c98e",
          "topics": [
            "0xddf252ad1be2c89b69c2b068fc378daa952ba7f163c4a11628f55a4df523b3ef",
            "0x000000000000000000000000ec2b1547294a4dd62c0ae651aeb01493f8e4cd74",
            "0x000000000000000000000000c3235b99bdf0f12e793bca9b83a8bad88e06c8b3"
          ],
          "data": "0x00000000000000000000000000000000000000000000043c33c1937564800000",
          "blockHash": "0x4052d154ea2cfd22fb39570ae51f7406c83227b1aafcf09e7d82a6fcdfb07df2",
          "blockNumber": "0x8de127",
          "blockTimestamp": "0x68d928bc",
          "transactionHash": "0xa6ced07a765fd9537f7188e730d37f07b76761a5e71d0856faab985f3bee4efb",
          "transactionIndex": "0xdf",
          "logIndex": "0x10f",
          "removed": false
        }
      ],
      "logsBloom": "0x00000000000000000000000000000000000000000000000000000000000000000000000000000000000000000000000000000000000000000000000000000000010000000000000000000008000000000000000000000000004000000000000000000000000000000000000000000000000000000000000000000010000004000000000000200000000000000042000000000000000000000000000000000000000000000000000000000000000000000000000000000000000000001080000000000002000000000000000000000080000000000000000000000000000000000000000000000000000000000000000000000000000000000000000000000000",
      "type": "0x2",
      "transactionHash": "0xa6ced07a765fd9537f7188e730d37f07b76761a5e71d0856faab985f3bee4efb",
      "transactionIndex": "0xdf",
      "blockHash": "0x4052d154ea2cfd22fb39570ae51f7406c83227b1aafcf09e7d82a6fcdfb07df2",
      "blockNumber": "0x8de127",
      "gasUsed": "0xc86d",
      "effectiveGasPrice": "0xf424b",
      "from": "0xec2b1547294a4dd62c0ae651aeb01493f8e4cd74",
      "to": "0xc4e523b7d26186ec7f1dcbed8a64dabde795c98e",
      "contractAddress": null
    }
  ],
  "libraries": [],
  "pending": [],
  "returns": {},
  "timestamp": 1759062204274,
  "chain": 11155111,
  "commit": "44cef56"
}