{
  "transactions": [
    {
      "hash": "0x07d25da00b12f727ae641bf34218f04a376f758236164395faa9d378b33e3992",
      "transactionType": "CALL",
      "contractName": "Bloom",
      "contractAddress": "0xc4e523b7d26186ec7f1dcbed8a64dabde795c98e",
      "function": "mint(address,uint256)",
      "arguments": [
        "0xec2B1547294a4dd62C0aE651aEb01493f8e4cD74",
        "5000000000000000000000000"
      ],
      "transaction": {
        "from": "0xec2b1547294a4dd62c0ae651aeb01493f8e4cd74",
        "to": "0xc4e523b7d26186ec7f1dcbed8a64dabde795c98e",
        "gas": "0xc1ef",
        "value": "0x0",
        "input": "0x40c10f19000000000000000000000000ec2b1547294a4dd62c0ae651aeb01493f8e4cd740000000000000000000000000000000000000000000422ca8b0a00a425000000",
        "nonce": "0x204",
        "chainId": "0xaa36a7"
      },
      "additionalContracts": [],
      "isFixedGasLimit": false
    },
    {
      "hash": "0x636d2def89b8c09b0a5406b9d59c1eb38bfdc7a99361eb427391e44900985f0a",
      "transactionType": "CALL",
      "contractName": null,
      "contractAddress": "0xc3235b99bdf0f12e793bca9b83a8bad88e06c8b3",
      "function": null,
      "arguments": null,
      "transaction": {
        "from": "0xec2b1547294a4dd62c0ae651aeb01493f8e4cd74",
        "to": "0xc3235b99bdf0f12e793bca9b83a8bad88e06c8b3",
        "gas": "0x714d",
        "value": "0x71afd498d0000",
        "input": "0x",
        "nonce": "0x205",
        "chainId": "0xaa36a7"
      },
      "additionalContracts": [],
      "isFixedGasLimit": false
    },
    {
      "hash": "0xae75452541d6a84b6925619b6e7d478a921520c08ed1e982a8acc3dffaba5368",
      "transactionType": "CALL",
      "contractName": "Bloom",
      "contractAddress": "0xc4e523b7d26186ec7f1dcbed8a64dabde795c98e",
      "function": "transfer(address,uint256)",
      "arguments": [
        "0xc3235B99Bdf0F12e793BcA9B83A8BAD88E06C8B3",
        "100000000000000000000000"
      ],
      "transaction": {
        "from": "0xec2b1547294a4dd62c0ae651aeb01493f8e4cd74",
        "to": "0xc4e523b7d26186ec7f1dcbed8a64dabde795c98e",
        "gas": "0xc36e",
        "value": "0x0",
        "input": "0xa9059cbb000000000000000000000000c3235b99bdf0f12e793bca9b83a8bad88e06c8b300000000000000000000000000000000000000000000152d02c7e14af6800000",
        "nonce": "0x206",
        "chainId": "0xaa36a7"
      },
      "additionalContracts": [],
      "isFixedGasLimit": false
    },
    {
      "hash": "0x59cd56827ac5fdbd90a3abb2c416cb27303c10f531015675f1a63cf4598e5cfb",
      "transactionType": "CALL",
      "contractName": null,
      "contractAddress": "0x1d011983f10e491662dd1ea8af0d6d6213b76a85",
      "function": null,
      "arguments": null,
      "transaction": {
        "from": "0xec2b1547294a4dd62c0ae651aeb01493f8e4cd74",
        "to": "0x1d011983f10e491662dd1ea8af0d6d6213b76a85",
        "gas": "0x714d",
        "value": "0x71afd498d0000",
        "input": "0x",
        "nonce": "0x207",
        "chainId": "0xaa36a7"
      },
      "additionalContracts": [],
      "isFixedGasLimit": false
    },
    {
      "hash": "0x5606e43e01bcd9d74cc8c707f7a6749a4afd2412bfe8e015ff7cb585abd039d3",
      "transactionType": "CALL",
      "contractName": "Bloom",
      "contractAddress": "0xc4e523b7d26186ec7f1dcbed8a64dabde795c98e",
      "function": "transfer(address,uint256)",
      "arguments": [
        "0x1d011983F10E491662dd1eA8Af0D6d6213B76A85",
        "100000000000000000000000"
      ],
      "transaction": {
        "from": "0xec2b1547294a4dd62c0ae651aeb01493f8e4cd74",
        "to": "0xc4e523b7d26186ec7f1dcbed8a64dabde795c98e",
        "gas": "0xc36e",
        "value": "0x0",
        "input": "0xa9059cbb0000000000000000000000001d011983f10e491662dd1ea8af0d6d6213b76a8500000000000000000000000000000000000000000000152d02c7e14af6800000",
        "nonce": "0x208",
        "chainId": "0xaa36a7"
      },
      "additionalContracts": [],
      "isFixedGasLimit": false
    },
    {
      "hash": "0x9bc23ca653864c1c8222ac7af9b9cd390a5f0053a1519a073e5707faf87f9fc1",
      "transactionType": "CALL",
      "contractName": null,
      "contractAddress": "0x8ea11de1130aa63ad0cd553b580fe0ca16c6fe06",
      "function": null,
      "arguments": null,
      "transaction": {
        "from": "0xec2b1547294a4dd62c0ae651aeb01493f8e4cd74",
        "to": "0x8ea11de1130aa63ad0cd553b580fe0ca16c6fe06",
        "gas": "0x714d",
        "value": "0x71afd498d0000",
        "input": "0x",
        "nonce": "0x209",
        "chainId": "0xaa36a7"
      },
      "additionalContracts": [],
      "isFixedGasLimit": false
    },
    {
      "hash": "0xe91541d27a22d078b74823ad389bdc0fbfd82183aae3748a99769ffd20d7c749",
      "transactionType": "CALL",
      "contractName": "Bloom",
      "contractAddress": "0xc4e523b7d26186ec7f1dcbed8a64dabde795c98e",
      "function": "transfer(address,uint256)",
      "arguments": [
        "0x8EA11de1130aA63aD0CD553B580fe0ca16C6fE06",
        "100000000000000000000000"
      ],
      "transaction": {
        "from": "0xec2b1547294a4dd62c0ae651aeb01493f8e4cd74",
        "to": "0xc4e523b7d26186ec7f1dcbed8a64dabde795c98e",
        "gas": "0x114d5",
        "value": "0x0",
        "input": "0xa9059cbb0000000000000000000000008ea11de1130aa63ad0cd553b580fe0ca16c6fe0600000000000000000000000000000000000000000000152d02c7e14af6800000",
        "nonce": "0x20a",
        "chainId": "0xaa36a7"
      },
      "additionalContracts": [],
      "isFixedGasLimit": false
    },
    {
      "hash": "0xb8b63be4e27cca9a625abe6c8a1c4d03ed96fe8f92f2f64a9815572f69369823",
      "transactionType": "CALL",
      "contractName": null,
      "contractAddress": "0x38ef052f7cf9c84940e6ca0e3b98411e0c15ee0a",
      "function": null,
      "arguments": null,
      "transaction": {
        "from": "0xec2b1547294a4dd62c0ae651aeb01493f8e4cd74",
        "to": "0x38ef052f7cf9c84940e6ca0e3b98411e0c15ee0a",
        "gas": "0x714d",
        "value": "0x71afd498d0000",
        "input": "0x",
        "nonce": "0x20b",
        "chainId": "0xaa36a7"
      },
      "additionalContracts": [],
      "isFixedGasLimit": false
    },
    {
      "hash": "0xcfe59fe5347a8430d6be2d68b24f889146b7379a23bfa4ffc28be82b15f2fe90",
      "transactionType": "CALL",
      "contractName": "Bloom",
      "contractAddress": "0xc4e523b7d26186ec7f1dcbed8a64dabde795c98e",
      "function": "transfer(address,uint256)",
      "arguments": [
        "0x38eF052F7cf9c84940E6ca0e3b98411e0c15Ee0a",
        "100000000000000000000000"
      ],
      "transaction": {
        "from": "0xec2b1547294a4dd62c0ae651aeb01493f8e4cd74",
        "to": "0xc4e523b7d26186ec7f1dcbed8a64dabde795c98e",
        "gas": "0xc36e",
        "value": "0x0",
        "input": "0xa9059cbb00000000000000000000000038ef052f7cf9c84940e6ca0e3b98411e0c15ee0a00000000000000000000000000000000000000000000152d02c7e14af6800000",
        "nonce": "0x20c",
        "chainId": "0xaa36a7"
      },
      "additionalContracts": [],
      "isFixedGasLimit": false
    },
    {
      "hash": "0x58338fd2cbcf8042942c928b25721d2e8bceb4fa975c6349f8b0c8becf8d08fb",
      "transactionType": "CALL",
      "contractName": null,
      "contractAddress": "0x5709666308b6d4a7129acc66d2237bee65083097",
      "function": null,
      "arguments": null,
      "transaction": {
        "from": "0xec2b1547294a4dd62c0ae651aeb01493f8e4cd74",
        "to": "0x5709666308b6d4a7129acc66d2237bee65083097",
        "gas": "0x714d",
        "value": "0x71afd498d0000",
        "input": "0x",
        "nonce": "0x20d",
        "chainId": "0xaa36a7"
      },
      "additionalContracts": [],
      "isFixedGasLimit": false
    },
    {
      "hash": "0xbba0affd83f8122a96d59cb1c6f644797e162c6fdcb35d418e5bb01e2a68dcf3",
      "transactionType": "CALL",
      "contractName": "Bloom",
      "contractAddress": "0xc4e523b7d26186ec7f1dcbed8a64dabde795c98e",
      "function": "transfer(address,uint256)",
      "arguments": [
        "0x5709666308b6d4a7129aCc66d2237beE65083097",
        "100000000000000000000000"
      ],
      "transaction": {
        "from": "0xec2b1547294a4dd62c0ae651aeb01493f8e4cd74",
        "to": "0xc4e523b7d26186ec7f1dcbed8a64dabde795c98e",
        "gas": "0xc36e",
        "value": "0x0",
        "input": "0xa9059cbb0000000000000000000000005709666308b6d4a7129acc66d2237bee6508309700000000000000000000000000000000000000000000152d02c7e14af6800000",
        "nonce": "0x20e",
        "chainId": "0xaa36a7"
      },
      "additionalContracts": [],
      "isFixedGasLimit": false
    },
    {
      "hash": "0x0c6461f446c33240c6e574a2ea4d4809a8f442c9ff977c13efcb7b4ad2a19310",
      "transactionType": "CALL",
      "contractName": null,
      "contractAddress": "0x4be1d42471e6d6a078a28cf4f530a2f564100419",
      "function": null,
      "arguments": null,
      "transaction": {
        "from": "0xec2b1547294a4dd62c0ae651aeb01493f8e4cd74",
        "to": "0x4be1d42471e6d6a078a28cf4f530a2f564100419",
        "gas": "0x714d",
        "value": "0x71afd498d0000",
        "input": "0x",
        "nonce": "0x20f",
        "chainId": "0xaa36a7"
      },
      "additionalContracts": [],
      "isFixedGasLimit": false
    },
    {
      "hash": "0x6ebde6bf15df1fe5df11b4ab03bf7e993ce41f818d5589ce8a4e474aa4c5f6e0",
      "transactionType": "CALL",
      "contractName": "Bloom",
      "contractAddress": "0xc4e523b7d26186ec7f1dcbed8a64dabde795c98e",
      "function": "transfer(address,uint256)",
      "arguments": [
        "0x4bE1d42471E6D6a078A28cf4f530A2F564100419",
        "100000000000000000000000"
      ],
      "transaction": {
        "from": "0xec2b1547294a4dd62c0ae651aeb01493f8e4cd74",
        "to": "0xc4e523b7d26186ec7f1dcbed8a64dabde795c98e",
        "gas": "0xc36e",
        "value": "0x0",
        "input": "0xa9059cbb0000000000000000000000004be1d42471e6d6a078a28cf4f530a2f56410041900000000000000000000000000000000000000000000152d02c7e14af6800000",
        "nonce": "0x210",
        "chainId": "0xaa36a7"
      },
      "additionalContracts": [],
      "isFixedGasLimit": false
    },
    {
      "hash": "0x24339420c531748a5be2821f11468261fa716ef3f863fb5cb43aa92704e50dac",
      "transactionType": "CALL",
      "contractName": null,
      "contractAddress": "0x91ff08d659a2bf96df7f7b5e290677a133ed81b5",
      "function": null,
      "arguments": null,
      "transaction": {
        "from": "0xec2b1547294a4dd62c0ae651aeb01493f8e4cd74",
        "to": "0x91ff08d659a2bf96df7f7b5e290677a133ed81b5",
        "gas": "0x714d",
        "value": "0x71afd498d0000",
        "input": "0x",
        "nonce": "0x211",
        "chainId": "0xaa36a7"
      },
      "additionalContracts": [],
      "isFixedGasLimit": false
    },
    {
      "hash": "0x011fe9df318cce36e68c7a06c6c6401fcef9edf23978de7c739a151736794e6f",
      "transactionType": "CALL",
      "contractName": "Bloom",
      "contractAddress": "0xc4e523b7d26186ec7f1dcbed8a64dabde795c98e",
      "function": "transfer(address,uint256)",
      "arguments": [
        "0x91FF08D659A2bF96dF7F7b5e290677a133Ed81B5",
        "100000000000000000000000"
      ],
      "transaction": {
        "from": "0xec2b1547294a4dd62c0ae651aeb01493f8e4cd74",
        "to": "0xc4e523b7d26186ec7f1dcbed8a64dabde795c98e",
        "gas": "0xc36e",
        "value": "0x0",
        "input": "0xa9059cbb00000000000000000000000091ff08d659a2bf96df7f7b5e290677a133ed81b500000000000000000000000000000000000000000000152d02c7e14af6800000",
        "nonce": "0x212",
        "chainId": "0xaa36a7"
      },
      "additionalContracts": [],
      "isFixedGasLimit": false
    },
    {
      "hash": "0xb9d391432e9c0a6749aaec2efa28424f6336a87ba0c0986ee99cac4d2c001877",
      "transactionType": "CALL",
      "contractName": null,
      "contractAddress": "0x77d5f1995b2ef0bf3dff06bbb1943f54c644ae7f",
      "function": null,
      "arguments": null,
      "transaction": {
        "from": "0xec2b1547294a4dd62c0ae651aeb01493f8e4cd74",
        "to": "0x77d5f1995b2ef0bf3dff06bbb1943f54c644ae7f",
        "gas": "0x714d",
        "value": "0x71afd498d0000",
        "input": "0x",
        "nonce": "0x213",
        "chainId": "0xaa36a7"
      },
      "additionalContracts": [],
      "isFixedGasLimit": false
    },
    {
      "hash": "0xce5dbc222e0708215f329e85d8882ab5a1a91fc0774401b2e32b1414c704b3e6",
      "transactionType": "CALL",
      "contractName": "Bloom",
      "contractAddress": "0xc4e523b7d26186ec7f1dcbed8a64dabde795c98e",
      "function": "transfer(address,uint256)",
      "arguments": [
        "0x77D5f1995B2Ef0bF3DfF06bbb1943F54c644AE7f",
        "100000000000000000000000"
      ],
      "transaction": {
        "from": "0xec2b1547294a4dd62c0ae651aeb01493f8e4cd74",
        "to": "0xc4e523b7d26186ec7f1dcbed8a64dabde795c98e",
        "gas": "0xc36e",
        "value": "0x0",
        "input": "0xa9059cbb00000000000000000000000077d5f1995b2ef0bf3dff06bbb1943f54c644ae7f00000000000000000000000000000000000000000000152d02c7e14af6800000",
        "nonce": "0x214",
        "chainId": "0xaa36a7"
      },
      "additionalContracts": [],
      "isFixedGasLimit": false
    },
    {
      "hash": "0x670a23a5ba0b7398f6fddb4bcdfeb006a47ec22184465f9aaa579ec72e8a995d",
      "transactionType": "CALL",
      "contractName": null,
      "contractAddress": "0x6aeca04b7208d65b35aaa53061bd3d6b348fe72f",
      "function": null,
      "arguments": null,
      "transaction": {
        "from": "0xec2b1547294a4dd62c0ae651aeb01493f8e4cd74",
        "to": "0x6aeca04b7208d65b35aaa53061bd3d6b348fe72f",
        "gas": "0x714d",
        "value": "0x71afd498d0000",
        "input": "0x",
        "nonce": "0x215",
        "chainId": "0xaa36a7"
      },
      "additionalContracts": [],
      "isFixedGasLimit": false
    },
    {
      "hash": "0xa4da4f1b6db108741810efcaa8f2801b2361e2eee0e149da36148429f8642a95",
      "transactionType": "CALL",
      "contractName": "Bloom",
      "contractAddress": "0xc4e523b7d26186ec7f1dcbed8a64dabde795c98e",
      "function": "transfer(address,uint256)",
      "arguments": [
        "0x6AeCa04B7208d65B35aAa53061Bd3d6b348fe72f",
        "100000000000000000000000"
      ],
      "transaction": {
        "from": "0xec2b1547294a4dd62c0ae651aeb01493f8e4cd74",
        "to": "0xc4e523b7d26186ec7f1dcbed8a64dabde795c98e",
        "gas": "0xc36e",
        "value": "0x0",
        "input": "0xa9059cbb0000000000000000000000006aeca04b7208d65b35aaa53061bd3d6b348fe72f00000000000000000000000000000000000000000000152d02c7e14af6800000",
        "nonce": "0x216",
        "chainId": "0xaa36a7"
      },
      "additionalContracts": [],
      "isFixedGasLimit": false
    },
    {
      "hash": "0xea7b2d59115be1e38fb3d4906a6ace3373fbff4a60bce3f57125456fbd163dab",
      "transactionType": "CALL",
      "contractName": null,
      "contractAddress": "0xe96fe7ad34b1a276c7cbc8ec1b0db4866976fca4",
      "function": null,
      "arguments": null,
      "transaction": {
        "from": "0xec2b1547294a4dd62c0ae651aeb01493f8e4cd74",
        "to": "0xe96fe7ad34b1a276c7cbc8ec1b0db4866976fca4",
        "gas": "0x714d",
        "value": "0x71afd498d0000",
        "input": "0x",
        "nonce": "0x217",
        "chainId": "0xaa36a7"
      },
      "additionalContracts": [],
      "isFixedGasLimit": false
    },
    {
      "hash": "0x8b57a9d1e42df28c14da2b6f447a3d17cfe7cd316626deabd08d9b98ddf68ad7",
      "transactionType": "CALL",
      "contractName": "Bloom",
      "contractAddress": "0xc4e523b7d26186ec7f1dcbed8a64dabde795c98e",
      "function": "transfer(address,uint256)",
      "arguments": [
        "0xE96fe7aD34B1a276C7cBc8ec1b0dB4866976FcA4",
        "100000000000000000000000"
      ],
      "transaction": {
        "from": "0xec2b1547294a4dd62c0ae651aeb01493f8e4cd74",
        "to": "0xc4e523b7d26186ec7f1dcbed8a64dabde795c98e",
        "gas": "0xc36e",
        "value": "0x0",
        "input": "0xa9059cbb000000000000000000000000e96fe7ad34b1a276c7cbc8ec1b0db4866976fca400000000000000000000000000000000000000000000152d02c7e14af6800000",
        "nonce": "0x218",
        "chainId": "0xaa36a7"
      },
      "additionalContracts": [],
      "isFixedGasLimit": false
    }
  ],
  "receipts": [
    {
      "status": "0x1",
      "cumulativeGasUsed": "0x12d0cbf",
      "logs": [
        {
          "address": "0xc4e523b7d26186ec7f1dcbed8a64dabde795c98e",
          "topics": [
            "0xddf252ad1be2c89b69c2b068fc378daa952ba7f163c4a11628f55a4df523b3ef",
            "0x0000000000000000000000000000000000000000000000000000000000000000",
            "0x000000000000000000000000ec2b1547294a4dd62c0ae651aeb01493f8e4cd74"
          ],
          "data": "0x0000000000000000000000000000000000000000000422ca8b0a00a425000000",
          "blockHash": "0x0db0d627764a2015fb22a221d3ef9bc94f94b6f3631badcc38910d8f3f341a8e",
          "blockNumber": "0x8ef031",
          "blockTimestamp": "0x68e6278c",
          "transactionHash": "0x07d25da00b12f727ae641bf34218f04a376f758236164395faa9d378b33e3992",
          "transactionIndex": "0xa3",
          "logIndex": "0x16c",
          "removed": false
        }
      ],
      "logsBloom": "0x00000000000000000000000000000000000000000000000000000000000000000000000000000000000000000000000000000000000000000000000000000000000000000000000000000008000000000000000000000000000000000000000000000000020000000000000000000800000000000000000000000010000004000000000000000000000000000042000000000000000000000000000000000000000000000000000000000000000000000000000000000000000000001080000000000002000000000000000000000080000000000000000000000000000020000000000000000000000000000000000000000000000000000000000000000000",
      "type": "0x2",
      "transactionHash": "0x07d25da00b12f727ae641bf34218f04a376f758236164395faa9d378b33e3992",
      "transactionIndex": "0xa3",
      "blockHash": "0x0db0d627764a2015fb22a221d3ef9bc94f94b6f3631badcc38910d8f3f341a8e",
      "blockNumber": "0x8ef031",
      "gasUsed": "0x849b",
      "effectiveGasPrice": "0xf4255",
      "from": "0xec2b1547294a4dd62c0ae651aeb01493f8e4cd74",
      "to": "0xc4e523b7d26186ec7f1dcbed8a64dabde795c98e",
      "contractAddress": null
    },
    {
      "status": "0x1",
      "cumulativeGasUsed": "0x138746e",
      "logs": [],
      "logsBloom": "0x00000000000000000000000000000000000000000000000000000000000000000000000000000000000000000000000000000000000000000000000000000000000000000000000000000000000000000000000000000000000000000000000000000000000000000000000000000000000000000000000000000000000000000000000000000000000000000000000000000000000000000000000000000000000000000000000000000000000000000000000000000000000000000000000000000000000000000000000000000000000000000000000000000000000000000000000000000000000000000000000000000000000000000000000000000000",
      "type": "0x2",
      "transactionHash": "0x636d2def89b8c09b0a5406b9d59c1eb38bfdc7a99361eb427391e44900985f0a",
      "transactionIndex": "0xc1",
      "blockHash": "0x0db0d627764a2015fb22a221d3ef9bc94f94b6f3631badcc38910d8f3f341a8e",
      "blockNumber": "0x8ef031",
      "gasUsed": "0x5208",
      "effectiveGasPrice": "0xf4255",
      "from": "0xec2b1547294a4dd62c0ae651aeb01493f8e4cd74",
      "to": "0xc3235b99bdf0f12e793bca9b83a8bad88e06c8b3",
      "contractAddress": null
    },
    {
      "status": "0x1",
      "cumulativeGasUsed": "0x138fa0f",
      "logs": [
        {
          "address": "0xc4e523b7d26186ec7f1dcbed8a64dabde795c98e",
          "topics": [
            "0xddf252ad1be2c89b69c2b068fc378daa952ba7f163c4a11628f55a4df523b3ef",
            "0x000000000000000000000000ec2b1547294a4dd62c0ae651aeb01493f8e4cd74",
            "0x000000000000000000000000c3235b99bdf0f12e793bca9b83a8bad88e06c8b3"
          ],
          "data": "0x00000000000000000000000000000000000000000000152d02c7e14af6800000",
          "blockHash": "0x0db0d627764a2015fb22a221d3ef9bc94f94b6f3631badcc38910d8f3f341a8e",
          "blockNumber": "0x8ef031",
          "blockTimestamp": "0x68e6278c",
          "transactionHash": "0xae75452541d6a84b6925619b6e7d478a921520c08ed1e982a8acc3dffaba5368",
          "transactionIndex": "0xc2",
          "logIndex": "0x177",
          "removed": false
        }
      ],
      "logsBloom": "0x00000000000000000000000000000000000000000000000000000000000000000000000000000000000000000000000000000000000000000000000000000000010000000000000000000008000000000000000000000000004000000000000000000000000000000000000000000000000000000000000000000010000004000000000000200000000000000042000000000000000000000000000000000000000000000000000000000000000000000000000000000000000000001080000000000002000000000000000000000080000000000000000000000000000000000000000000000000000000000000000000000000000000000000000000000000",
      "type": "0x2",
      "transactionHash": "0xae75452541d6a84b6925619b6e7d478a921520c08ed1e982a8acc3dffaba5368",
      "transactionIndex": "0xc2",
      "blockHash": "0x0db0d627764a2015fb22a221d3ef9bc94f94b6f3631badcc38910d8f3f341a8e",
      "blockNumber": "0x8ef031",
      "gasUsed": "0x85a1",
      "effectiveGasPrice": "0xf4255",
      "from": "0xec2b1547294a4dd62c0ae651aeb01493f8e4cd74",
      "to": "0xc4e523b7d26186ec7f1dcbed8a64dabde795c98e",
      "contractAddress": null
    },
    {
      "status": "0x1",
      "cumulativeGasUsed": "0x1394c17",
      "logs": [],
      "logsBloom": "0x00000000000000000000000000000000000000000000000000000000000000000000000000000000000000000000000000000000000000000000000000000000000000000000000000000000000000000000000000000000000000000000000000000000000000000000000000000000000000000000000000000000000000000000000000000000000000000000000000000000000000000000000000000000000000000000000000000000000000000000000000000000000000000000000000000000000000000000000000000000000000000000000000000000000000000000000000000000000000000000000000000000000000000000000000000000",
      "type": "0x2",
      "transactionHash": "0x59cd56827ac5fdbd90a3abb2c416cb27303c10f531015675f1a63cf4598e5cfb",
      "transactionIndex": "0xc3",
      "blockHash": "0x0db0d627764a2015fb22a221d3ef9bc94f94b6f3631badcc38910d8f3f341a8e",
      "blockNumber": "0x8ef031",
      "gasUsed": "0x5208",
      "effectiveGasPrice": "0xf4255",
      "from": "0xec2b1547294a4dd62c0ae651aeb01493f8e4cd74",
      "to": "0x1d011983f10e491662dd1ea8af0d6d6213b76a85",
      "contractAddress": null
    },
    {
      "status": "0x1",
      "cumulativeGasUsed": "0x139d1b8",
      "logs": [
        {
          "address": "0xc4e523b7d26186ec7f1dcbed8a64dabde795c98e",
          "topics": [
            "0xddf252ad1be2c89b69c2b068fc378daa952ba7f163c4a11628f55a4df523b3ef",
            "0x000000000000000000000000ec2b1547294a4dd62c0ae651aeb01493f8e4cd74",
            "0x0000000000000000000000001d011983f10e491662dd1ea8af0d6d6213b76a85"
          ],
          "data": "0x00000000000000000000000000000000000000000000152d02c7e14af6800000",
          "blockHash": "0x0db0d627764a2015fb22a221d3ef9bc94f94b6f3631badcc38910d8f3f341a8e",
          "blockNumber": "0x8ef031",
          "blockTimestamp": "0x68e6278c",
          "transactionHash": "0x5606e43e01bcd9d74cc8c707f7a6749a4afd2412bfe8e015ff7cb585abd039d3",
          "transactionIndex": "0xc4",
          "logIndex": "0x178",
          "removed": false
        }
      ],
      "logsBloom": "0x00000000000000000000000000000000000000000000000000000000000000000000000000000000000000000000000000000000000000000000000000000000000000000000000000000008000000000000000100000000000000000000000000000000000000000000000000000000000000000000000000000010000004000000000000000020000000000042000000000000000000000000000000000000000000000000000000000000000000000000000000000000000000001080000000000002000000000000000000000080000000000000000000000000000000000000000000000000000000000000000000000000000000000000000010000000",
      "type": "0x2",
      "transactionHash": "0x5606e43e01bcd9d74cc8c707f7a6749a4afd2412bfe8e015ff7cb585abd039d3",
      "transactionIndex": "0xc4",
      "blockHash": "0x0db0d627764a2015fb22a221d3ef9bc94f94b6f3631badcc38910d8f3f341a8e",
      "blockNumber": "0x8ef031",
      "gasUsed": "0x85a1",
      "effectiveGasPrice": "0xf4255",
      "from": "0xec2b1547294a4dd62c0ae651aeb01493f8e4cd74",
      "to": "0xc4e523b7d26186ec7f1dcbed8a64dabde795c98e",
      "contractAddress": null
    },
    {
      "status": "0x1",
      "cumulativeGasUsed": "0x13a23c0",
      "logs": [],
      "logsBloom": "0x00000000000000000000000000000000000000000000000000000000000000000000000000000000000000000000000000000000000000000000000000000000000000000000000000000000000000000000000000000000000000000000000000000000000000000000000000000000000000000000000000000000000000000000000000000000000000000000000000000000000000000000000000000000000000000000000000000000000000000000000000000000000000000000000000000000000000000000000000000000000000000000000000000000000000000000000000000000000000000000000000000000000000000000000000000000",
      "type": "0x2",
      "transactionHash": "0x9bc23ca653864c1c8222ac7af9b9cd390a5f0053a1519a073e5707faf87f9fc1",
      "transactionIndex": "0xc5",
      "blockHash": "0x0db0d627764a2015fb22a221d3ef9bc94f94b6f3631badcc38910d8f3f341a8e",
      "blockNumber": "0x8ef031",
      "gasUsed": "0x5208",
      "effectiveGasPrice": "0xf4255",
      "from": "0xec2b1547294a4dd62c0ae651aeb01493f8e4cd74",
      "to": "0x8ea11de1130aa63ad0cd553b580fe0ca16c6fe06",
      "contractAddress": null
    },
    {
      "status": "0x1",
      "cumulativeGasUsed": "0x13aec2d",
      "logs": [
        {
          "address": "0xc4e523b7d26186ec7f1dcbed8a64dabde795c98e",
          "topics": [
            "0xddf252ad1be2c89b69c2b068fc378daa952ba7f163c4a11628f55a4df523b3ef",
            "0x000000000000000000000000ec2b1547294a4dd62c0ae651aeb01493f8e4cd74",
            "0x0000000000000000000000008ea11de1130aa63ad0cd553b580fe0ca16c6fe06"
          ],
          "data": "0x00000000000000000000000000000000000000000000152d02c7e14af6800000",
          "blockHash": "0x0db0d627764a2015fb22a221d3ef9bc94f94b6f3631badcc38910d8f3f341a8e",
          "blockNumber": "0x8ef031",
          "blockTimestamp": "0x68e6278c",
          "transactionHash": "0xe91541d27a22d078b74823ad389bdc0fbfd82183aae3748a99769ffd20d7c749",
          "transactionIndex": "0xc6",
          "logIndex": "0x179",
          "removed": false
        }
      ],
      "logsBloom": "0x00000000000000100000000000000000000000000000000000000000000000000000000000000000000000000000000000000000000000000000000000000000000000000000000000000008000000000000000000000000000000000000000000000000000000000000000000000000000000000000000000000010000004000000000000000000000000000042000000000000000000000000000000000000000000000000000000000000000000000000000000000000000000001080000010000002000000000000000000000080000000000000000000000000000000040000000000000000000000000000000000000000000000000000000000000000",
      "type": "0x2",
      "transactionHash": "0xe91541d27a22d078b74823ad389bdc0fbfd82183aae3748a99769ffd20d7c749",
      "transactionIndex": "0xc6",
      "blockHash": "0x0db0d627764a2015fb22a221d3ef9bc94f94b6f3631badcc38910d8f3f341a8e",
      "blockNumber": "0x8ef031",
      "gasUsed": "0xc86d",
      "effectiveGasPrice": "0xf4255",
      "from": "0xec2b1547294a4dd62c0ae651aeb01493f8e4cd74",
      "to": "0xc4e523b7d26186ec7f1dcbed8a64dabde795c98e",
      "contractAddress": null
    },
    {
      "status": "0x1",
      "cumulativeGasUsed": "0x13b3e35",
      "logs": [],
      "logsBloom": "0x00000000000000000000000000000000000000000000000000000000000000000000000000000000000000000000000000000000000000000000000000000000000000000000000000000000000000000000000000000000000000000000000000000000000000000000000000000000000000000000000000000000000000000000000000000000000000000000000000000000000000000000000000000000000000000000000000000000000000000000000000000000000000000000000000000000000000000000000000000000000000000000000000000000000000000000000000000000000000000000000000000000000000000000000000000000",
      "type": "0x2",
      "transactionHash": "0xb8b63be4e27cca9a625abe6c8a1c4d03ed96fe8f92f2f64a9815572f69369823",
      "transactionIndex": "0xc7",
      "blockHash": "0x0db0d627764a2015fb22a221d3ef9bc94f94b6f3631badcc38910d8f3f341a8e",
      "blockNumber": "0x8ef031",
      "gasUsed": "0x5208",
      "effectiveGasPrice": "0xf4255",
      "from": "0xec2b1547294a4dd62c0ae651aeb01493f8e4cd74",
      "to": "0x38ef052f7cf9c84940e6ca0e3b98411e0c15ee0a",
      "contractAddress": null
    },
    {
      "status": "0x1",
      "cumulativeGasUsed": "0x13bc3d6",
      "logs": [
        {
          "address": "0xc4e523b7d26186ec7f1dcbed8a64dabde795c98e",
          "topics": [
            "0xddf252ad1be2c89b69c2b068fc378daa952ba7f163c4a11628f55a4df523b3ef",
            "0x000000000000000000000000ec2b1547294a4dd62c0ae651aeb01493f8e4cd74",
            "0x00000000000000000000000038ef052f7cf9c84940e6ca0e3b98411e0c15ee0a"
          ],
          "data": "0x00000000000000000000000000000000000000000000152d02c7e14af6800000",
          "blockHash": "0x0db0d627764a2015fb22a221d3ef9bc94f94b6f3631badcc38910d8f3f341a8e",
          "blockNumber": "0x8ef031",
          "blockTimestamp": "0x68e6278c",
          "transactionHash": "0xcfe59fe5347a8430d6be2d68b24f889146b7379a23bfa4ffc28be82b15f2fe90",
          "transactionIndex": "0xc8",
          "logIndex": "0x17a",
          "removed": false
        }
      ],
      "logsBloom": "0x00000000000000000000000000000000000000000000000000000000000000000000000000000000000000000040000000010000000040000000000000000000000000000000000000000008000000000000000000000000000000000000000000000000000000000000000000000000000000000000000000000010000004000000000000000000000000000042000000000000000000000000000000000000000000000000000000000000000000000000000000000000000000001080000000000002000000000000000000000080000000000000000000000000000000000000000000000000000000000000000000000000000000000000000000000000",
      "type": "0x2",
      "transactionHash": "0xcfe59fe5347a8430d6be2d68b24f889146b7379a23bfa4ffc28be82b15f2fe90",
      "transactionIndex": "0xc8",
      "blockHash": "0x0db0d627764a2015fb22a221d3ef9bc94f94b6f3631badcc38910d8f3f341a8e",
      "blockNumber": "0x8ef031",
      "gasUsed": "0x85a1",
      "effectiveGasPrice": "0xf4255",
      "from": "0xec2b1547294a4dd62c0ae651aeb01493f8e4cd74",
      "to": "0xc4e523b7d26186ec7f1dcbed8a64dabde795c98e",
      "contractAddress": null
    },
    {
      "status": "0x1",
      "cumulativeGasUsed": "0x13c67e6",
      "logs": [],
      "logsBloom": "0x00000000000000000000000000000000000000000000000000000000000000000000000000000000000000000000000000000000000000000000000000000000000000000000000000000000000000000000000000000000000000000000000000000000000000000000000000000000000000000000000000000000000000000000000000000000000000000000000000000000000000000000000000000000000000000000000000000000000000000000000000000000000000000000000000000000000000000000000000000000000000000000000000000000000000000000000000000000000000000000000000000000000000000000000000000000",
      "type": "0x2",
      "transactionHash": "0x58338fd2cbcf8042942c928b25721d2e8bceb4fa975c6349f8b0c8becf8d08fb",
      "transactionIndex": "0xca",
      "blockHash": "0x0db0d627764a2015fb22a221d3ef9bc94f94b6f3631badcc38910d8f3f341a8e",
      "blockNumber": "0x8ef031",
      "gasUsed": "0x5208",
      "effectiveGasPrice": "0xf4255",
      "from": "0xec2b1547294a4dd62c0ae651aeb01493f8e4cd74",
      "to": "0x5709666308b6d4a7129acc66d2237bee65083097",
      "contractAddress": null
    },
    {
      "status": "0x1",
      "cumulativeGasUsed": "0x13ced87",
      "logs": [
        {
          "address": "0xc4e523b7d26186ec7f1dcbed8a64dabde795c98e",
          "topics": [
            "0xddf252ad1be2c89b69c2b068fc378daa952ba7f163c4a11628f55a4df523b3ef",
            "0x000000000000000000000000ec2b1547294a4dd62c0ae651aeb01493f8e4cd74",
            "0x0000000000000000000000005709666308b6d4a7129acc66d2237bee65083097"
          ],
          "data": "0x00000000000000000000000000000000000000000000152d02c7e14af6800000",
          "blockHash": "0x0db0d627764a2015fb22a221d3ef9bc94f94b6f3631badcc38910d8f3f341a8e",
          "blockNumber": "0x8ef031",
          "blockTimestamp": "0x68e6278c",
          "transactionHash": "0xbba0affd83f8122a96d59cb1c6f644797e162c6fdcb35d418e5bb01e2a68dcf3",
          "transactionIndex": "0xcb",
          "logIndex": "0x17b",
          "removed": false
        }
      ],
      "logsBloom": "0x01000000000000000000000000000000000000000000000000000000000000000000000000000000000000000000000000000000000000000000000000000000000000000000000000000008000000000000000000000000000000000000000000000000000000000000000000000000000000000000000000000010000004000000000000000200000000000042000000000000000000000000000000000000000000000000000000000000000000000000000000000000000000001080000000000002000000000000000000000080000000000000000000000010000000000000000000000000000000000000000000000000000000000000000000000000",
      "type": "0x2",
      "transactionHash": "0xbba0affd83f8122a96d59cb1c6f644797e162c6fdcb35d418e5bb01e2a68dcf3",
      "transactionIndex": "0xcb",
      "blockHash": "0x0db0d627764a2015fb22a221d3ef9bc94f94b6f3631badcc38910d8f3f341a8e",
      "blockNumber": "0x8ef031",
      "gasUsed": "0x85a1",
      "effectiveGasPrice": "0xf4255",
      "from": "0xec2b1547294a4dd62c0ae651aeb01493f8e4cd74",
      "to": "0xc4e523b7d26186ec7f1dcbed8a64dabde795c98e",
      "contractAddress": null
    },
    {
      "status": "0x1",
      "cumulativeGasUsed": "0x13e35a7",
      "logs": [],
      "logsBloom": "0x00000000000000000000000000000000000000000000000000000000000000000000000000000000000000000000000000000000000000000000000000000000000000000000000000000000000000000000000000000000000000000000000000000000000000000000000000000000000000000000000000000000000000000000000000000000000000000000000000000000000000000000000000000000000000000000000000000000000000000000000000000000000000000000000000000000000000000000000000000000000000000000000000000000000000000000000000000000000000000000000000000000000000000000000000000000",
      "type": "0x2",
      "transactionHash": "0x0c6461f446c33240c6e574a2ea4d4809a8f442c9ff977c13efcb7b4ad2a19310",
      "transactionIndex": "0xcf",
      "blockHash": "0x0db0d627764a2015fb22a221d3ef9bc94f94b6f3631badcc38910d8f3f341a8e",
      "blockNumber": "0x8ef031",
      "gasUsed": "0x5208",
      "effectiveGasPrice": "0xf4255",
      "from": "0xec2b1547294a4dd62c0ae651aeb01493f8e4cd74",
      "to": "0x4be1d42471e6d6a078a28cf4f530a2f564100419",
      "contractAddress": null
    },
    {
      "status": "0x1",
      "cumulativeGasUsed": "0x13ebb48",
      "logs": [
        {
          "address": "0xc4e523b7d26186ec7f1dcbed8a64dabde795c98e",
          "topics": [
            "0xddf252ad1be2c89b69c2b068fc378daa952ba7f163c4a11628f55a4df523b3ef",
            "0x000000000000000000000000ec2b1547294a4dd62c0ae651aeb01493f8e4cd74",
            "0x0000000000000000000000004be1d42471e6d6a078a28cf4f530a2f564100419"
          ],
          "data": "0x00000000000000000000000000000000000000000000152d02c7e14af6800000",
          "blockHash": "0x0db0d627764a2015fb22a221d3ef9bc94f94b6f3631badcc38910d8f3f341a8e",
          "blockNumber": "0x8ef031",
          "blockTimestamp": "0x68e6278c",
          "transactionHash": "0x6ebde6bf15df1fe5df11b4ab03bf7e993ce41f818d5589ce8a4e474aa4c5f6e0",
          "transactionIndex": "0xd0",
          "logIndex": "0x17c",
          "removed": false
        }
      ],
      "logsBloom": "0x00000000000000000000000000000000000000000000000000000000000000000000000000000000000000000000000000000000000000000200000000000000000000000000000000000008000000000000000000000000000000000000000000000000000000000000000000000000000000000000000000000010000004000000000000000000000000000042000000000000000040000000000000000000000000000000000000000000000000000000000000000000000000001080000000000002000000010000000000000080000000000000000000000000000000000000000000000000000000000000000000000000000000000000000000000000",
      "type": "0x2",
      "transactionHash": "0x6ebde6bf15df1fe5df11b4ab03bf7e993ce41f818d5589ce8a4e474aa4c5f6e0",
      "transactionIndex": "0xd0",
      "blockHash": "0x0db0d627764a2015fb22a221d3ef9bc94f94b6f3631badcc38910d8f3f341a8e",
      "blockNumber": "0x8ef031",
      "gasUsed": "0x85a1",
      "effectiveGasPrice": "0xf4255",
      "from": "0xec2b1547294a4dd62c0ae651aeb01493f8e4cd74",
      "to": "0xc4e523b7d26186ec7f1dcbed8a64dabde795c98e",
      "contractAddress": null
    },
    {
      "status": "0x1",
      "cumulativeGasUsed": "0x13f0d50",
      "logs": [],
      "logsBloom": "0x00000000000000000000000000000000000000000000000000000000000000000000000000000000000000000000000000000000000000000000000000000000000000000000000000000000000000000000000000000000000000000000000000000000000000000000000000000000000000000000000000000000000000000000000000000000000000000000000000000000000000000000000000000000000000000000000000000000000000000000000000000000000000000000000000000000000000000000000000000000000000000000000000000000000000000000000000000000000000000000000000000000000000000000000000000000",
      "type": "0x2",
      "transactionHash": "0x24339420c531748a5be2821f11468261fa716ef3f863fb5cb43aa92704e50dac",
      "transactionIndex": "0xd1",
      "blockHash": "0x0db0d627764a2015fb22a221d3ef9bc94f94b6f3631badcc38910d8f3f341a8e",
      "blockNumber": "0x8ef031",
      "gasUsed": "0x5208",
      "effectiveGasPrice": "0xf4255",
      "from": "0xec2b1547294a4dd62c0ae651aeb01493f8e4cd74",
      "to": "0x91ff08d659a2bf96df7f7b5e290677a133ed81b5",
      "contractAddress": null
    },
    {
      "status": "0x1",
      "cumulativeGasUsed": "0x13f92f1",
      "logs": [
        {
          "address": "0xc4e523b7d26186ec7f1dcbed8a64dabde795c98e",
          "topics": [
            "0xddf252ad1be2c89b69c2b068fc378daa952ba7f163c4a11628f55a4df523b3ef",
            "0x000000000000000000000000ec2b1547294a4dd62c0ae651aeb01493f8e4cd74",
            "0x00000000000000000000000091ff08d659a2bf96df7f7b5e290677a133ed81b5"
          ],
          "data": "0x00000000000000000000000000000000000000000000152d02c7e14af6800000",
          "blockHash": "0x0db0d627764a2015fb22a221d3ef9bc94f94b6f3631badcc38910d8f3f341a8e",
          "blockNumber": "0x8ef031",
          "blockTimestamp": "0x68e6278c",
          "transactionHash": "0x011fe9df318cce36e68c7a06c6c6401fcef9edf23978de7c739a151736794e6f",
          "transactionIndex": "0xd2",
          "logIndex": "0x17d",
          "removed": false
        }
      ],
      "logsBloom": "0x00000000000000000000000000000000000000000000000000000000008000000000000000000000000000000000000000000000000000000000000000000000000000000000000000000008000000000000000000020000000000000000000000000000000000000000000000040000000000000000000000000010000004000000000000000000000000000042000000000000000000000000000000000000000000000000000000000000000000000000000000000000000000001080000000000002000000000000000000000080000000000000000000000000000000000000000000000000000000000000000000000000000000000000000000000000",
      "type": "0x2",
      "transactionHash": "0x011fe9df318cce36e68c7a06c6c6401fcef9edf23978de7c739a151736794e6f",
      "transactionIndex": "0xd2",
      "blockHash": "0x0db0d627764a2015fb22a221d3ef9bc94f94b6f3631badcc38910d8f3f341a8e",
      "blockNumber": "0x8ef031",
      "gasUsed": "0x85a1",
      "effectiveGasPrice": "0xf4255",
      "from": "0xec2b1547294a4dd62c0ae651aeb01493f8e4cd74",
      "to": "0xc4e523b7d26186ec7f1dcbed8a64dabde795c98e",
      "contractAddress": null
    },
    {
      "status": "0x1",
      "cumulativeGasUsed": "0x13fe4f9",
      "logs": [],
      "logsBloom": "0x00000000000000000000000000000000000000000000000000000000000000000000000000000000000000000000000000000000000000000000000000000000000000000000000000000000000000000000000000000000000000000000000000000000000000000000000000000000000000000000000000000000000000000000000000000000000000000000000000000000000000000000000000000000000000000000000000000000000000000000000000000000000000000000000000000000000000000000000000000000000000000000000000000000000000000000000000000000000000000000000000000000000000000000000000000000",
      "type": "0x2",
      "transactionHash": "0xb9d391432e9c0a6749aaec2efa28424f6336a87ba0c0986ee99cac4d2c001877",
      "transactionIndex": "0xd3",
      "blockHash": "0x0db0d627764a2015fb22a221d3ef9bc94f94b6f3631badcc38910d8f3f341a8e",
      "blockNumber": "0x8ef031",
      "gasUsed": "0x5208",
      "effectiveGasPrice": "0xf4255",
      "from": "0xec2b1547294a4dd62c0ae651aeb01493f8e4cd74",
      "to": "0x77d5f1995b2ef0bf3dff06bbb1943f54c644ae7f",
      "contractAddress": null
    },
    {
      "status": "0x1",
      "cumulativeGasUsed": "0xd83bd6",
      "logs": [
        {
          "address": "0xc4e523b7d26186ec7f1dcbed8a64dabde795c98e",
          "topics": [
            "0xddf252ad1be2c89b69c2b068fc378daa952ba7f163c4a11628f55a4df523b3ef",
            "0x000000000000000000000000ec2b1547294a4dd62c0ae651aeb01493f8e4cd74",
            "0x00000000000000000000000077d5f1995b2ef0bf3dff06bbb1943f54c644ae7f"
          ],
          "data": "0x00000000000000000000000000000000000000000000152d02c7e14af6800000",
          "blockHash": "0x05d4dfd1068dfe75fa02dc529e7bae6d3f6ed2db3e2939a227270cbf8a3fe758",
          "blockNumber": "0x8ef032",
          "blockTimestamp": "0x68e62798",
          "transactionHash": "0xce5dbc222e0708215f329e85d8882ab5a1a91fc0774401b2e32b1414c704b3e6",
          "transactionIndex": "0x52",
          "logIndex": "0x54",
          "removed": false
        }
      ],
      "logsBloom": "0x00000000000000000002000000000000000000000000000000000000000000000000000000000000000000000000000000000000000000000000000000000000000000000000000000000008000000000000000000000000000000000000000000000000000000000000000000000000000000000000000000000010000004000000000000000000000000000042000000000000000000000000000000000000000000000000000000000000000000000000000000000000000000001080000000000002000400000000000000000080000000000000000000000000000000000000000000000000000000000000000000000000000000000000000000000000",
      "type": "0x2",
      "transactionHash": "0xce5dbc222e0708215f329e85d8882ab5a1a91fc0774401b2e32b1414c704b3e6",
      "transactionIndex": "0x52",
      "blockHash": "0x05d4dfd1068dfe75fa02dc529e7bae6d3f6ed2db3e2939a227270cbf8a3fe758",
      "blockNumber": "0x8ef032",
      "gasUsed": "0x85a1",
      "effectiveGasPrice": "0xf4255",
      "from": "0xec2b1547294a4dd62c0ae651aeb01493f8e4cd74",
      "to": "0xc4e523b7d26186ec7f1dcbed8a64dabde795c98e",
      "contractAddress": null
    },
    {
      "status": "0x1",
      "cumulativeGasUsed": "0xd88dde",
      "logs": [],
      "logsBloom": "0x00000000000000000000000000000000000000000000000000000000000000000000000000000000000000000000000000000000000000000000000000000000000000000000000000000000000000000000000000000000000000000000000000000000000000000000000000000000000000000000000000000000000000000000000000000000000000000000000000000000000000000000000000000000000000000000000000000000000000000000000000000000000000000000000000000000000000000000000000000000000000000000000000000000000000000000000000000000000000000000000000000000000000000000000000000000",
      "type": "0x2",
      "transactionHash": "0x670a23a5ba0b7398f6fddb4bcdfeb006a47ec22184465f9aaa579ec72e8a995d",
      "transactionIndex": "0x53",
      "blockHash": "0x05d4dfd1068dfe75fa02dc529e7bae6d3f6ed2db3e2939a227270cbf8a3fe758",
      "blockNumber": "0x8ef032",
      "gasUsed": "0x5208",
      "effectiveGasPrice": "0xf4255",
      "from": "0xec2b1547294a4dd62c0ae651aeb01493f8e4cd74",
      "to": "0x6aeca04b7208d65b35aaa53061bd3d6b348fe72f",
      "contractAddress": null
    },
    {
      "status": "0x1",
      "cumulativeGasUsed": "0xd9137f",
      "logs": [
        {
          "address": "0xc4e523b7d26186ec7f1dcbed8a64dabde795c98e",
          "topics": [
            "0xddf252ad1be2c89b69c2b068fc378daa952ba7f163c4a11628f55a4df523b3ef",
            "0x000000000000000000000000ec2b1547294a4dd62c0ae651aeb01493f8e4cd74",
            "0x0000000000000000000000006aeca04b7208d65b35aaa53061bd3d6b348fe72f"
          ],
          "data": "0x00000000000000000000000000000000000000000000152d02c7e14af6800000",
          "blockHash": "0x05d4dfd1068dfe75fa02dc529e7bae6d3f6ed2db3e2939a227270cbf8a3fe758",
          "blockNumber": "0x8ef032",
          "blockTimestamp": "0x68e62798",
          "transactionHash": "0xa4da4f1b6db108741810efcaa8f2801b2361e2eee0e149da36148429f8642a95",
          "transactionIndex": "0x54",
          "logIndex": "0x55",
          "removed": false
        }
      ],
      "logsBloom": "0x00000000000000000000000000000000000000000000000000000000000000000000000000000000000000000000000000000000000000000000000000000000000000000000000000000008000000000000000000000000000000000000000000000000000000000000000000000000000000000000000000000010000004000000000000000000000000000046000000000000000000000000000000000000000000000000010000000000000000000000000000000000000000001080000000000002000000000000000000000080000000000000000000008000000000000000000000000000000000000000000000000000000000000000000000000000",
      "type": "0x2",
      "transactionHash": "0xa4da4f1b6db108741810efcaa8f2801b2361e2eee0e149da36148429f8642a95",
      "transactionIndex": "0x54",
      "blockHash": "0x05d4dfd1068dfe75fa02dc529e7bae6d3f6ed2db3e2939a227270cbf8a3fe758",
      "blockNumber": "0x8ef032",
      "gasUsed": "0x85a1",
      "effectiveGasPrice": "0xf4255",
      "from": "0xec2b1547294a4dd62c0ae651aeb01493f8e4cd74",
      "to": "0xc4e523b7d26186ec7f1dcbed8a64dabde795c98e",
      "contractAddress": null
    },
    {
      "status": "0x1",
      "cumulativeGasUsed": "0xd96587",
      "logs": [],
      "logsBloom": "0x00000000000000000000000000000000000000000000000000000000000000000000000000000000000000000000000000000000000000000000000000000000000000000000000000000000000000000000000000000000000000000000000000000000000000000000000000000000000000000000000000000000000000000000000000000000000000000000000000000000000000000000000000000000000000000000000000000000000000000000000000000000000000000000000000000000000000000000000000000000000000000000000000000000000000000000000000000000000000000000000000000000000000000000000000000000",
      "type": "0x2",
      "transactionHash": "0xea7b2d59115be1e38fb3d4906a6ace3373fbff4a60bce3f57125456fbd163dab",
      "transactionIndex": "0x55",
      "blockHash": "0x05d4dfd1068dfe75fa02dc529e7bae6d3f6ed2db3e2939a227270cbf8a3fe758",
      "blockNumber": "0x8ef032",
      "gasUsed": "0x5208",
      "effectiveGasPrice": "0xf4255",
      "from": "0xec2b1547294a4dd62c0ae651aeb01493f8e4cd74",
      "to": "0xe96fe7ad34b1a276c7cbc8ec1b0db4866976fca4",
      "contractAddress": null
    },
    {
      "status": "0x1",
      "cumulativeGasUsed": "0xd9eb28",
      "logs": [
        {
          "address": "0xc4e523b7d26186ec7f1dcbed8a64dabde795c98e",
          "topics": [
            "0xddf252ad1be2c89b69c2b068fc378daa952ba7f163c4a11628f55a4df523b3ef",
            "0x000000000000000000000000ec2b1547294a4dd62c0ae651aeb01493f8e4cd74",
            "0x000000000000000000000000e96fe7ad34b1a276c7cbc8ec1b0db4866976fca4"
          ],
          "data": "0x00000000000000000000000000000000000000000000152d02c7e14af6800000",
          "blockHash": "0x05d4dfd1068dfe75fa02dc529e7bae6d3f6ed2db3e2939a227270cbf8a3fe758",
          "blockNumber": "0x8ef032",
          "blockTimestamp": "0x68e62798",
          "transactionHash": "0x8b57a9d1e42df28c14da2b6f447a3d17cfe7cd316626deabd08d9b98ddf68ad7",
          "transactionIndex": "0x56",
          "logIndex": "0x56",
          "removed": false
        }
      ],
      "logsBloom": "0x00000000000000000000000000000000000000000000000000000000000000000000000000000200000000000000000000000000000000200000000000000000000000000000000000000008000000000000000000000000000000000000000000000000000000000000000000000000000000000000000000000010000004000000000000000000000000000042000000000000000000100000000000000000000000000000000000000000000000000000000000000000000000001080000000000002000000000000000000000080000000000000000000000000000000000000000000000000000000000000000000000000000000000000000000000000",
      "type": "0x2",
      "transactionHash": "0x8b57a9d1e42df28c14da2b6f447a3d17cfe7cd316626deabd08d9b98ddf68ad7",
      "transactionIndex": "0x56",
      "blockHash": "0x05d4dfd1068dfe75fa02dc529e7bae6d3f6ed2db3e2939a227270cbf8a3fe758",
      "blockNumber": "0x8ef032",
      "gasUsed": "0x85a1",
      "effectiveGasPrice": "0xf4255",
      "from": "0xec2b1547294a4dd62c0ae651aeb01493f8e4cd74",
      "to": "0xc4e523b7d26186ec7f1dcbed8a64dabde795c98e",
      "contractAddress": null
    }
  ],
  "libraries": [],
  "pending": [],
  "returns": {},
  "timestamp": 1759913880991,
  "chain": 11155111,
  "commit": "6c79791"
}