{
  "transactions": [
    {
      "hash": "0xf14401453075cb42b3cdb146781fe46227892d065e69a2ad60b65b65b1f9610f",
      "transactionType": "CALL",
      "contractName": "Bloom",
      "contractAddress": "0xc4e523b7d26186ec7f1dcbed8a64dabde795c98e",
      "function": "mint(address,uint256)",
      "arguments": [
        "0xec2B1547294a4dd62C0aE651aEb01493f8e4cD74",
        "5000000000000000000000000"
      ],
      "transaction": {
        "from": "0xec2b1547294a4dd62c0ae651aeb01493f8e4cd74",
        "to": "0xc4e523b7d26186ec7f1dcbed8a64dabde795c98e",
        "gas": "0xc1ef",
        "value": "0x0",
        "input": "0x40c10f19000000000000000000000000ec2b1547294a4dd62c0ae651aeb01493f8e4cd740000000000000000000000000000000000000000000422ca8b0a00a425000000",
        "nonce": "0x1b7",
        "chainId": "0xaa36a7"
      },
      "additionalContracts": [],
      "isFixedGasLimit": false
    },
    {
      "hash": "0x78aedb159a7046eedbb428a54f1a23b069733be774e4de0a6d621b07cfbe7b96",
      "transactionType": "CALL",
      "contractName": "Bloom",
      "contractAddress": "0xc4e523b7d26186ec7f1dcbed8a64dabde795c98e",
      "function": "transfer(address,uint256)",
      "arguments": [
        "0xc3235B99Bdf0F12e793BcA9B83A8BAD88E06C8B3",
        "100000000000000000000000"
      ],
      "transaction": {
        "from": "0xec2b1547294a4dd62c0ae651aeb01493f8e4cd74",
        "to": "0xc4e523b7d26186ec7f1dcbed8a64dabde795c98e",
        "gas": "0xc36e",
        "value": "0x0",
        "input": "0xa9059cbb000000000000000000000000c3235b99bdf0f12e793bca9b83a8bad88e06c8b300000000000000000000000000000000000000000000152d02c7e14af6800000",
        "nonce": "0x1b8",
        "chainId": "0xaa36a7"
      },
      "additionalContracts": [],
      "isFixedGasLimit": false
    }
  ],
  "receipts": [
    {
      "status": "0x1",
      "cumulativeGasUsed": "0x177bef0",
      "logs": [
        {
          "address": "0xc4e523b7d26186ec7f1dcbed8a64dabde795c98e",
          "topics": [
            "0xddf252ad1be2c89b69c2b068fc378daa952ba7f163c4a11628f55a4df523b3ef",
            "0x0000000000000000000000000000000000000000000000000000000000000000",
            "0x000000000000000000000000ec2b1547294a4dd62c0ae651aeb01493f8e4cd74"
          ],
          "data": "0x0000000000000000000000000000000000000000000422ca8b0a00a425000000",
          "blockHash": "0x0e48f77a67892b5e57d46a444a716a51c7a0da940425b1cf7e1d2dd63646ce89",
          "blockNumber": "0x8e4056",
          "blockTimestamp": "0x68dda82c",
          "transactionHash": "0xf14401453075cb42b3cdb146781fe46227892d065e69a2ad60b65b65b1f9610f",
          "transactionIndex": "0x87",
          "logIndex": "0xba",
          "removed": false
        }
      ],
      "logsBloom": "0x00000000000000000000000000000000000000000000000000000000000000000000000000000000000000000000000000000000000000000000000000000000000000000000000000000008000000000000000000000000000000000000000000000000020000000000000000000800000000000000000000000010000004000000000000000000000000000042000000000000000000000000000000000000000000000000000000000000000000000000000000000000000000001080000000000002000000000000000000000080000000000000000000000000000020000000000000000000000000000000000000000000000000000000000000000000",
      "type": "0x2",
      "transactionHash": "0xf14401453075cb42b3cdb146781fe46227892d065e69a2ad60b65b65b1f9610f",
      "transactionIndex": "0x87",
      "blockHash": "0x0e48f77a67892b5e57d46a444a716a51c7a0da940425b1cf7e1d2dd63646ce89",
      "blockNumber": "0x8e4056",
      "gasUsed": "0x849b",
      "effectiveGasPrice": "0xf5f3b",
      "from": "0xec2b1547294a4dd62c0ae651aeb01493f8e4cd74",
      "to": "0xc4e523b7d26186ec7f1dcbed8a64dabde795c98e",
      "contractAddress": null
    },
    {
      "status": "0x1",
      "cumulativeGasUsed": "0x1784491",
      "logs": [
        {
          "address": "0xc4e523b7d26186ec7f1dcbed8a64dabde795c98e",
          "topics": [
            "0xddf252ad1be2c89b69c2b068fc378daa952ba7f163c4a11628f55a4df523b3ef",
            "0x000000000000000000000000ec2b1547294a4dd62c0ae651aeb01493f8e4cd74",
            "0x000000000000000000000000c3235b99bdf0f12e793bca9b83a8bad88e06c8b3"
          ],
          "data": "0x00000000000000000000000000000000000000000000152d02c7e14af6800000",
          "blockHash": "0x0e48f77a67892b5e57d46a444a716a51c7a0da940425b1cf7e1d2dd63646ce89",
          "blockNumber": "0x8e4056",
          "blockTimestamp": "0x68dda82c",
          "transactionHash": "0x78aedb159a7046eedbb428a54f1a23b069733be774e4de0a6d621b07cfbe7b96",
          "transactionIndex": "0x88",
          "logIndex": "0xbb",
          "removed": false
        }
      ],
      "logsBloom": "0x00000000000000000000000000000000000000000000000000000000000000000000000000000000000000000000000000000000000000000000000000000000010000000000000000000008000000000000000000000000004000000000000000000000000000000000000000000000000000000000000000000010000004000000000000200000000000000042000000000000000000000000000000000000000000000000000000000000000000000000000000000000000000001080000000000002000000000000000000000080000000000000000000000000000000000000000000000000000000000000000000000000000000000000000000000000",
      "type": "0x2",
      "transactionHash": "0x78aedb159a7046eedbb428a54f1a23b069733be774e4de0a6d621b07cfbe7b96",
      "transactionIndex": "0x88",
      "blockHash": "0x0e48f77a67892b5e57d46a444a716a51c7a0da940425b1cf7e1d2dd63646ce89",
      "blockNumber": "0x8e4056",
      "gasUsed": "0x85a1",
      "effectiveGasPrice": "0xf5f3b",
      "from": "0xec2b1547294a4dd62c0ae651aeb01493f8e4cd74",
      "to": "0xc4e523b7d26186ec7f1dcbed8a64dabde795c98e",
      "contractAddress": null
    }
  ],
  "libraries": [],
  "pending": [],
  "returns": {},
  "timestamp": 1759356973851,
  "chain": 11155111,
  "commit": "8ad19b5"
}